{
  "_format": "hh-sol-artifact-1",
  "contractName": "ApplicationLoan",
  "sourceName": "contracts/ApplicationLoan.sol",
  "abi": [
    {
      "inputs": [
        {
          "internalType": "address",
          "name": "_transactionContractAddress",
          "type": "address"
        }
      ],
      "stateMutability": "nonpayable",
      "type": "constructor"
    },
    {
      "inputs": [
        {
          "internalType": "uint256",
          "name": "_loanId",
          "type": "uint256"
        },
        {
          "internalType": "uint256",
          "name": "_amount",
          "type": "uint256"
        }
      ],
      "name": "becomeGuarantor",
      "outputs": [],
      "stateMutability": "nonpayable",
      "type": "function"
    },
    {
      "inputs": [
        {
          "internalType": "string",
          "name": "_title",
          "type": "string"
        },
        {
          "internalType": "string",
          "name": "_description",
          "type": "string"
        },
        {
          "internalType": "uint256",
          "name": "_amount",
          "type": "uint256"
        },
        {
          "internalType": "uint256",
          "name": "_target",
          "type": "uint256"
        },
        {
          "internalType": "uint256",
          "name": "_deadline",
          "type": "uint256"
        }
      ],
      "name": "createLoan",
      "outputs": [
        {
          "internalType": "uint256",
          "name": "",
          "type": "uint256"
        }
      ],
      "stateMutability": "nonpayable",
      "type": "function"
    },
    {
      "inputs": [
        {
          "internalType": "uint256",
          "name": "_loanId",
          "type": "uint256"
        }
      ],
      "name": "getLoan",
      "outputs": [
        {
          "components": [
            {
              "internalType": "address",
              "name": "owner",
              "type": "address"
            },
            {
              "internalType": "string",
              "name": "title",
              "type": "string"
            },
            {
              "internalType": "string",
              "name": "description",
              "type": "string"
            },
            {
              "internalType": "uint256",
              "name": "amount",
              "type": "uint256"
            },
            {
              "internalType": "uint256",
              "name": "target",
              "type": "uint256"
            },
            {
              "internalType": "uint256",
              "name": "deadline",
              "type": "uint256"
            },
            {
              "internalType": "uint256",
              "name": "isLoanActive",
              "type": "uint256"
            },
            {
              "internalType": "address[]",
              "name": "guarantors",
              "type": "address[]"
            },
            {
              "internalType": "uint256[]",
              "name": "guaranteedAmounts",
              "type": "uint256[]"
            },
            {
              "internalType": "uint256",
              "name": "totalPaid",
              "type": "uint256"
            },
            {
              "internalType": "uint256",
              "name": "totalGuaranteed",
              "type": "uint256"
            }
          ],
          "internalType": "struct ApplicationLoan.LoanDetails",
          "name": "",
          "type": "tuple"
        }
      ],
      "stateMutability": "view",
      "type": "function"
    },
    {
      "inputs": [
        {
          "internalType": "address",
          "name": "_user",
          "type": "address"
        }
      ],
      "name": "hasUnpaidLoans",
      "outputs": [
        {
          "internalType": "bool",
          "name": "",
          "type": "bool"
        }
      ],
      "stateMutability": "view",
      "type": "function"
    },
    {
      "inputs": [
        {
          "internalType": "uint256",
          "name": "_loanId",
          "type": "uint256"
        }
      ],
      "name": "isGuaranteeAprop",
      "outputs": [
        {
          "internalType": "bool",
          "name": "",
          "type": "bool"
        }
      ],
      "stateMutability": "view",
      "type": "function"
    },
    {
      "inputs": [],
      "name": "loanCounter",
      "outputs": [
        {
          "internalType": "uint256",
          "name": "",
          "type": "uint256"
        }
      ],
      "stateMutability": "view",
      "type": "function"
    },
    {
      "inputs": [
        {
          "internalType": "uint256",
          "name": "",
          "type": "uint256"
        }
      ],
      "name": "loans",
      "outputs": [
        {
          "internalType": "address",
          "name": "owner",
          "type": "address"
        },
        {
          "internalType": "string",
          "name": "title",
          "type": "string"
        },
        {
          "internalType": "string",
          "name": "description",
          "type": "string"
        },
        {
          "internalType": "uint256",
          "name": "amount",
          "type": "uint256"
        },
        {
          "internalType": "uint256",
          "name": "target",
          "type": "uint256"
        },
        {
          "internalType": "uint256",
          "name": "deadline",
          "type": "uint256"
        },
        {
          "internalType": "uint256",
          "name": "isLoanActive",
          "type": "uint256"
        },
        {
          "internalType": "uint256",
          "name": "totalPaid",
          "type": "uint256"
        },
        {
          "internalType": "uint256",
          "name": "totalGuaranteed",
          "type": "uint256"
        }
      ],
      "stateMutability": "view",
      "type": "function"
    },
    {
      "inputs": [
        {
          "internalType": "uint256",
          "name": "_loanId",
          "type": "uint256"
        },
        {
          "internalType": "uint256",
          "name": "_amount",
          "type": "uint256"
        }
      ],
      "name": "makePayment",
      "outputs": [],
      "stateMutability": "nonpayable",
      "type": "function"
    },
    {
      "inputs": [
        {
          "internalType": "uint256",
          "name": "_loanId",
          "type": "uint256"
        },
        {
          "internalType": "uint256",
          "name": "_amount",
          "type": "uint256"
        }
      ],
      "name": "provideLoan",
      "outputs": [],
      "stateMutability": "nonpayable",
      "type": "function"
    },
    {
      "inputs": [],
      "name": "transactionContract",
      "outputs": [
        {
          "internalType": "contract Transaction",
          "name": "",
          "type": "address"
        }
      ],
      "stateMutability": "view",
      "type": "function"
    }
  ],
  "bytecode": "0x60806040523480156200001157600080fd5b5060405162002211380380620022118339818101604052810190620000379190620000e9565b80600260006101000a81548173ffffffffffffffffffffffffffffffffffffffff021916908373ffffffffffffffffffffffffffffffffffffffff160217905550506200011b565b600080fd5b600073ffffffffffffffffffffffffffffffffffffffff82169050919050565b6000620000b18262000084565b9050919050565b620000c381620000a4565b8114620000cf57600080fd5b50565b600081519050620000e381620000b8565b92915050565b6000602082840312156200010257620001016200007f565b5b60006200011284828501620000d2565b91505092915050565b6120e6806200012b6000396000f3fe608060405234801561001057600080fd5b506004361061009e5760003560e01c80635bbb861e116100665780635bbb861e1461014757806374dec12814610177578063d390f974146101a7578063e02b570d146101c3578063e1ec3c68146101f35761009e565b80631f45275b146100a357806323dbe888146100c1578063265e8e18146100dd57806334d9289e146100f9578063504006ca14610117575b600080fd5b6100ab61022b565b6040516100b8919061117e565b60405180910390f35b6100db60048036038101906100d691906111e3565b610251565b005b6100f760048036038101906100f291906111e3565b6104a8565b005b610101610611565b60405161010e9190611232565b60405180910390f35b610131600480360381019061012c919061124d565b610617565b60405161013e919061159c565b60405180910390f35b610161600480360381019061015c91906116f3565b6108cd565b60405161016e9190611232565b60405180910390f35b610191600480360381019061018c91906117d2565b610aef565b60405161019e919061181a565b60405180910390f35b6101c160048036038101906101bc91906111e3565b610bb3565b005b6101dd60048036038101906101d8919061124d565b610df3565b6040516101ea919061181a565b60405180910390f35b61020d6004803603810190610208919061124d565b610e1d565b6040516102229998979695949392919061188e565b60405180910390f35b600260009054906101000a900473ffffffffffffffffffffffffffffffffffffffff1681565b61025a33610aef565b1561029a576040517f08c379a00000000000000000000000000000000000000000000000000000000081526004016102919061199b565b60405180910390fd5b6000806000848152602001908152602001600020905060018160060154146102f7576040517f08c379a00000000000000000000000000000000000000000000000000000000081526004016102ee90611a2d565b60405180910390fd5b80600301548282600a015461030c9190611a7c565b111561034d576040517f08c379a000000000000000000000000000000000000000000000000000000000815260040161034490611afc565b60405180910390fd5b80600701339080600181540180825580915050600190039060005260206000200160009091909190916101000a81548173ffffffffffffffffffffffffffffffffffffffff021916908373ffffffffffffffffffffffffffffffffffffffff160217905550806008018290806001815401808255809150506001900390600052602060002001600090919091909150558181600a0160008282546103f19190611a7c565b92505081905550600260009054906101000a900473ffffffffffffffffffffffffffffffffffffffff1673ffffffffffffffffffffffffffffffffffffffff1663113341493385856040518463ffffffff1660e01b815260040161045793929190611b1c565b600060405180830381600087803b15801561047157600080fd5b505af1158015610485573d6000803e3d6000fd5b50505050806003015481600a0154036104a357600281600601819055505b505050565b600080600084815260200190815260200160002090506002816006015414610505576040517f08c379a00000000000000000000000000000000000000000000000000000000081526004016104fc90611bc5565b60405180910390fd5b8060030154821461054b576040517f08c379a000000000000000000000000000000000000000000000000000000000815260040161054290611c31565b60405180910390fd5b600260009054906101000a900473ffffffffffffffffffffffffffffffffffffffff1673ffffffffffffffffffffffffffffffffffffffff166387e5708f338360000160009054906101000a900473ffffffffffffffffffffffffffffffffffffffff1686866040518563ffffffff1660e01b81526004016105d09493929190611c51565b600060405180830381600087803b1580156105ea57600080fd5b505af11580156105fe573d6000803e3d6000fd5b5050505060038160060181905550505050565b60015481565b61061f610f9b565b600080600084815260200190815260200160002090506040518061016001604052808260000160009054906101000a900473ffffffffffffffffffffffffffffffffffffffff1673ffffffffffffffffffffffffffffffffffffffff16815260200182600101805461069090611cc5565b80601f01602080910402602001604051908101604052809291908181526020018280546106bc90611cc5565b80156107095780601f106106de57610100808354040283529160200191610709565b820191906000526020600020905b8154815290600101906020018083116106ec57829003601f168201915b5050505050815260200182600201805461072290611cc5565b80601f016020809104026020016040519081016040528092919081815260200182805461074e90611cc5565b801561079b5780601f106107705761010080835404028352916020019161079b565b820191906000526020600020905b81548152906001019060200180831161077e57829003601f168201915b50505050508152602001826003015481526020018260040154815260200182600501548152602001826006015481526020018260070180548060200260200160405190810160405280929190818152602001828054801561085157602002820191906000526020600020905b8160009054906101000a900473ffffffffffffffffffffffffffffffffffffffff1673ffffffffffffffffffffffffffffffffffffffff1681526020019060010190808311610807575b50505050508152602001826008018054806020026020016040519081016040528092919081815260200182805480156108a957602002820191906000526020600020905b815481526020019060010190808311610895575b505050505081526020018260090154815260200182600a0154815250915050919050565b6000600160008154809291906108e290611cf6565b91905055506040518061016001604052803373ffffffffffffffffffffffffffffffffffffffff16815260200187815260200186815260200185815260200184815260200183815260200160018152602001600067ffffffffffffffff81111561094f5761094e6115c8565b5b60405190808252806020026020018201604052801561097d5781602001602082028036833780820191505090505b508152602001600067ffffffffffffffff81111561099e5761099d6115c8565b5b6040519080825280602002602001820160405280156109cc5781602001602082028036833780820191505090505b508152602001600081526020016000815250600080600154815260200190815260200160002060008201518160000160006101000a81548173ffffffffffffffffffffffffffffffffffffffff021916908373ffffffffffffffffffffffffffffffffffffffff1602179055506020820151816001019081610a4e9190611ee0565b506040820151816002019081610a649190611ee0565b50606082015181600301556080820151816004015560a0820151816005015560c0820151816006015560e0820151816007019080519060200190610aa992919061100b565b50610100820151816008019080519060200190610ac7929190611095565b50610120820151816009015561014082015181600a0155905050600154905095945050505050565b600080600190505b6001548111610ba8578273ffffffffffffffffffffffffffffffffffffffff1660008083815260200190815260200160002060000160009054906101000a900473ffffffffffffffffffffffffffffffffffffffff1673ffffffffffffffffffffffffffffffffffffffff16148015610b86575060046000808381526020019081526020016000206006015414155b15610b95576001915050610bae565b8080610ba090611cf6565b915050610af7565b50600090505b919050565b60036000808481526020019081526020016000206006015414610c0b576040517f08c379a0000000000000000000000000000000000000000000000000000000008152600401610c0290611ffe565b60405180910390fd5b60008083815260200190815260200160002060000160009054906101000a900473ffffffffffffffffffffffffffffffffffffffff1673ffffffffffffffffffffffffffffffffffffffff163373ffffffffffffffffffffffffffffffffffffffff1614610cae576040517f08c379a0000000000000000000000000000000000000000000000000000000008152600401610ca590612090565b60405180910390fd5b806000808481526020019081526020016000206009016000828254610cd39190611a7c565b92505081905550600260009054906101000a900473ffffffffffffffffffffffffffffffffffffffff1673ffffffffffffffffffffffffffffffffffffffff166387e5708f60008085815260200190815260200160002060000160009054906101000a900473ffffffffffffffffffffffffffffffffffffffff163385856040518563ffffffff1660e01b8152600401610d709493929190611c51565b600060405180830381600087803b158015610d8a57600080fd5b505af1158015610d9e573d6000803e3d6000fd5b50505050600080838152602001908152602001600020600301546000808481526020019081526020016000206009015410610def576004600080848152602001908152602001600020600601819055505b5050565b6000806000808481526020019081526020016000209050806003015481600a015414915050919050565b60006020528060005260406000206000915090508060000160009054906101000a900473ffffffffffffffffffffffffffffffffffffffff1690806001018054610e6690611cc5565b80601f0160208091040260200160405190810160405280929190818152602001828054610e9290611cc5565b8015610edf5780601f10610eb457610100808354040283529160200191610edf565b820191906000526020600020905b815481529060010190602001808311610ec257829003601f168201915b505050505090806002018054610ef490611cc5565b80601f0160208091040260200160405190810160405280929190818152602001828054610f2090611cc5565b8015610f6d5780601f10610f4257610100808354040283529160200191610f6d565b820191906000526020600020905b815481529060010190602001808311610f5057829003601f168201915b50505050509080600301549080600401549080600501549080600601549080600901549080600a0154905089565b604051806101600160405280600073ffffffffffffffffffffffffffffffffffffffff168152602001606081526020016060815260200160008152602001600081526020016000815260200160008152602001606081526020016060815260200160008152602001600081525090565b828054828255906000526020600020908101928215611084579160200282015b828111156110835782518260006101000a81548173ffffffffffffffffffffffffffffffffffffffff021916908373ffffffffffffffffffffffffffffffffffffffff1602179055509160200191906001019061102b565b5b50905061109191906110e2565b5090565b8280548282559060005260206000209081019282156110d1579160200282015b828111156110d05782518255916020019190600101906110b5565b5b5090506110de91906110e2565b5090565b5b808211156110fb5760008160009055506001016110e3565b5090565b600073ffffffffffffffffffffffffffffffffffffffff82169050919050565b6000819050919050565b600061114461113f61113a846110ff565b61111f565b6110ff565b9050919050565b600061115682611129565b9050919050565b60006111688261114b565b9050919050565b6111788161115d565b82525050565b6000602082019050611193600083018461116f565b92915050565b6000604051905090565b600080fd5b600080fd5b6000819050919050565b6111c0816111ad565b81146111cb57600080fd5b50565b6000813590506111dd816111b7565b92915050565b600080604083850312156111fa576111f96111a3565b5b6000611208858286016111ce565b9250506020611219858286016111ce565b9150509250929050565b61122c816111ad565b82525050565b60006020820190506112476000830184611223565b92915050565b600060208284031215611263576112626111a3565b5b6000611271848285016111ce565b91505092915050565b6000611285826110ff565b9050919050565b6112958161127a565b82525050565b600081519050919050565b600082825260208201905092915050565b60005b838110156112d55780820151818401526020810190506112ba565b60008484015250505050565b6000601f19601f8301169050919050565b60006112fd8261129b565b61130781856112a6565b93506113178185602086016112b7565b611320816112e1565b840191505092915050565b611334816111ad565b82525050565b600081519050919050565b600082825260208201905092915050565b6000819050602082019050919050565b6000611372838361128c565b60208301905092915050565b6000602082019050919050565b60006113968261133a565b6113a08185611345565b93506113ab83611356565b8060005b838110156113dc5781516113c38882611366565b97506113ce8361137e565b9250506001810190506113af565b5085935050505092915050565b600081519050919050565b600082825260208201905092915050565b6000819050602082019050919050565b6000611421838361132b565b60208301905092915050565b6000602082019050919050565b6000611445826113e9565b61144f81856113f4565b935061145a83611405565b8060005b8381101561148b5781516114728882611415565b975061147d8361142d565b92505060018101905061145e565b5085935050505092915050565b6000610160830160008301516114b1600086018261128c565b50602083015184820360208601526114c982826112f2565b915050604083015184820360408601526114e382826112f2565b91505060608301516114f8606086018261132b565b50608083015161150b608086018261132b565b5060a083015161151e60a086018261132b565b5060c083015161153160c086018261132b565b5060e083015184820360e0860152611549828261138b565b915050610100830151848203610100860152611565828261143a565b91505061012083015161157c61012086018261132b565b5061014083015161159161014086018261132b565b508091505092915050565b600060208201905081810360008301526115b68184611498565b905092915050565b600080fd5b600080fd5b7f4e487b7100000000000000000000000000000000000000000000000000000000600052604160045260246000fd5b611600826112e1565b810181811067ffffffffffffffff8211171561161f5761161e6115c8565b5b80604052505050565b6000611632611199565b905061163e82826115f7565b919050565b600067ffffffffffffffff82111561165e5761165d6115c8565b5b611667826112e1565b9050602081019050919050565b82818337600083830152505050565b600061169661169184611643565b611628565b9050828152602081018484840111156116b2576116b16115c3565b5b6116bd848285611674565b509392505050565b600082601f8301126116da576116d96115be565b5b81356116ea848260208601611683565b91505092915050565b600080600080600060a0868803121561170f5761170e6111a3565b5b600086013567ffffffffffffffff81111561172d5761172c6111a8565b5b611739888289016116c5565b955050602086013567ffffffffffffffff81111561175a576117596111a8565b5b611766888289016116c5565b9450506040611777888289016111ce565b9350506060611788888289016111ce565b9250506080611799888289016111ce565b9150509295509295909350565b6117af8161127a565b81146117ba57600080fd5b50565b6000813590506117cc816117a6565b92915050565b6000602082840312156117e8576117e76111a3565b5b60006117f6848285016117bd565b91505092915050565b60008115159050919050565b611814816117ff565b82525050565b600060208201905061182f600083018461180b565b92915050565b61183e8161127a565b82525050565b600082825260208201905092915050565b60006118608261129b565b61186a8185611844565b935061187a8185602086016112b7565b611883816112e1565b840191505092915050565b6000610120820190506118a4600083018c611835565b81810360208301526118b6818b611855565b905081810360408301526118ca818a611855565b90506118d96060830189611223565b6118e66080830188611223565b6118f360a0830187611223565b61190060c0830186611223565b61190d60e0830185611223565b61191b610100830184611223565b9a9950505050505050505050565b7f557365722068617320756e70616964206c6f616e7320616e642063616e6e6f7460008201527f20626520612067756172616e746f722e00000000000000000000000000000000602082015250565b6000611985603083611844565b915061199082611929565b604082019050919050565b600060208201905081810360008301526119b481611978565b9050919050565b7f4c6f616e206973206e6f7420616363657074696e672067756172616e7465657360008201527f2e00000000000000000000000000000000000000000000000000000000000000602082015250565b6000611a17602183611844565b9150611a22826119bb565b604082019050919050565b60006020820190508181036000830152611a4681611a0a565b9050919050565b7f4e487b7100000000000000000000000000000000000000000000000000000000600052601160045260246000fd5b6000611a87826111ad565b9150611a92836111ad565b9250828201905080821115611aaa57611aa9611a4d565b5b92915050565b7f47756172616e7465652065786365656473206c6f616e20616d6f756e742e0000600082015250565b6000611ae6601e83611844565b9150611af182611ab0565b602082019050919050565b60006020820190508181036000830152611b1581611ad9565b9050919050565b6000606082019050611b316000830186611835565b611b3e6020830185611223565b611b4b6040830184611223565b949350505050565b7f4c6f616e206973206e6f742066756c6c792067756172616e746565642079657460008201527f2e00000000000000000000000000000000000000000000000000000000000000602082015250565b6000611baf602183611844565b9150611bba82611b53565b604082019050919050565b60006020820190508181036000830152611bde81611ba2565b9050919050565b7f4c6f616e20616d6f756e7420646f6573206e6f74206d617463682e0000000000600082015250565b6000611c1b601b83611844565b9150611c2682611be5565b602082019050919050565b60006020820190508181036000830152611c4a81611c0e565b9050919050565b6000608082019050611c666000830187611835565b611c736020830186611835565b611c806040830185611223565b611c8d6060830184611223565b95945050505050565b7f4e487b7100000000000000000000000000000000000000000000000000000000600052602260045260246000fd5b60006002820490506001821680611cdd57607f821691505b602082108103611cf057611cef611c96565b5b50919050565b6000611d01826111ad565b91507fffffffffffffffffffffffffffffffffffffffffffffffffffffffffffffffff8203611d3357611d32611a4d565b5b600182019050919050565b60008190508160005260206000209050919050565b60006020601f8301049050919050565b600082821b905092915050565b600060088302611da07fffffffffffffffffffffffffffffffffffffffffffffffffffffffffffffffff82611d63565b611daa8683611d63565b95508019841693508086168417925050509392505050565b6000611ddd611dd8611dd3846111ad565b61111f565b6111ad565b9050919050565b6000819050919050565b611df783611dc2565b611e0b611e0382611de4565b848454611d70565b825550505050565b600090565b611e20611e13565b611e2b818484611dee565b505050565b5b81811015611e4f57611e44600082611e18565b600181019050611e31565b5050565b601f821115611e9457611e6581611d3e565b611e6e84611d53565b81016020851015611e7d578190505b611e91611e8985611d53565b830182611e30565b50505b505050565b600082821c905092915050565b6000611eb760001984600802611e99565b1980831691505092915050565b6000611ed08383611ea6565b9150826002028217905092915050565b611ee98261129b565b67ffffffffffffffff811115611f0257611f016115c8565b5b611f0c8254611cc5565b611f17828285611e53565b600060209050601f831160018114611f4a5760008415611f38578287015190505b611f428582611ec4565b865550611faa565b601f198416611f5886611d3e565b60005b82811015611f8057848901518255600182019150602085019450602081019050611f5b565b86831015611f9d5784890151611f99601f891682611ea6565b8355505b6001600288020188555050505b505050505050565b7f4c6f616e206973206e6f742061637469766520666f72207061796d656e742e00600082015250565b6000611fe8601f83611844565b9150611ff382611fb2565b602082019050919050565b6000602082019050818103600083015261201781611fdb565b9050919050565b7f4f6e6c792074686520626f72726f7765722063616e206d616b65207061796d6560008201527f6e74732e00000000000000000000000000000000000000000000000000000000602082015250565b600061207a602483611844565b91506120858261201e565b604082019050919050565b600060208201905081810360008301526120a98161206d565b905091905056fea264697066735822122023f4bec98bdac06b612161ad9d21f927b2bc97fd83f46217f41fb9ad2f21de1f64736f6c63430008180033",
  "linkReferences": {},
  "deployedLinkReferences": {}
}