{
  "_format": "hh-sol-artifact-1",
  "contractName": "ApplicationLoan",
  "sourceName": "contracts/ApplicationLoan.sol",
  "abi": [
    {
      "inputs": [
        {
          "internalType": "address",
          "name": "_stablecoinAddress",
          "type": "address"
        }
      ],
      "stateMutability": "nonpayable",
      "type": "constructor"
    },
    {
      "inputs": [],
      "name": "allLoanApprove",
      "outputs": [
        {
          "components": [
            {
              "internalType": "address",
              "name": "owner",
              "type": "address"
            },
            {
              "internalType": "string",
              "name": "title",
              "type": "string"
            },
            {
              "internalType": "string",
              "name": "description",
              "type": "string"
            },
            {
              "internalType": "uint256",
              "name": "amount",
              "type": "uint256"
            },
            {
              "internalType": "uint256",
              "name": "target",
              "type": "uint256"
            },
            {
              "internalType": "uint256",
              "name": "deadline",
              "type": "uint256"
            },
            {
              "internalType": "uint256",
              "name": "isLoanActive",
              "type": "uint256"
            },
            {
              "internalType": "bool",
              "name": "acceptedTerms",
              "type": "bool"
            },
            {
              "internalType": "address[]",
              "name": "guarantors",
              "type": "address[]"
            },
            {
              "internalType": "uint256[]",
              "name": "guaranteedAmounts",
              "type": "uint256[]"
            },
            {
              "internalType": "uint256",
              "name": "totalPaid",
              "type": "uint256"
            },
            {
              "internalType": "uint256",
              "name": "totalGuaranteed",
              "type": "uint256"
            }
          ],
          "internalType": "struct ApplicationLoan.Loan[]",
          "name": "",
          "type": "tuple[]"
        }
      ],
      "stateMutability": "view",
      "type": "function"
    },
    {
      "inputs": [
        {
          "internalType": "uint256",
          "name": "_loanId",
          "type": "uint256"
        },
        {
          "internalType": "uint256",
          "name": "_amount",
          "type": "uint256"
        }
      ],
      "name": "becomeGuarantor",
      "outputs": [],
      "stateMutability": "nonpayable",
      "type": "function"
    },
    {
      "inputs": [
        {
          "internalType": "string",
          "name": "_title",
          "type": "string"
        },
        {
          "internalType": "string",
          "name": "_description",
          "type": "string"
        },
        {
          "internalType": "uint256",
          "name": "_amount",
          "type": "uint256"
        },
        {
          "internalType": "uint256",
          "name": "_target",
          "type": "uint256"
        },
        {
          "internalType": "uint256",
          "name": "_deadline",
          "type": "uint256"
        },
        {
          "internalType": "bool",
          "name": "_acceptedTerms",
          "type": "bool"
        }
      ],
      "name": "createLoan",
      "outputs": [
        {
          "internalType": "uint256",
          "name": "",
          "type": "uint256"
        }
      ],
      "stateMutability": "nonpayable",
      "type": "function"
    },
    {
      "inputs": [],
      "name": "getAllLoans",
      "outputs": [
        {
          "components": [
            {
              "internalType": "address",
              "name": "owner",
              "type": "address"
            },
            {
              "internalType": "string",
              "name": "title",
              "type": "string"
            },
            {
              "internalType": "string",
              "name": "description",
              "type": "string"
            },
            {
              "internalType": "uint256",
              "name": "amount",
              "type": "uint256"
            },
            {
              "internalType": "uint256",
              "name": "target",
              "type": "uint256"
            },
            {
              "internalType": "uint256",
              "name": "deadline",
              "type": "uint256"
            },
            {
              "internalType": "uint256",
              "name": "isLoanActive",
              "type": "uint256"
            },
            {
              "internalType": "bool",
              "name": "acceptedTerms",
              "type": "bool"
            },
            {
              "internalType": "address[]",
              "name": "guarantors",
              "type": "address[]"
            },
            {
              "internalType": "uint256[]",
              "name": "guaranteedAmounts",
              "type": "uint256[]"
            },
            {
              "internalType": "uint256",
              "name": "totalPaid",
              "type": "uint256"
            },
            {
              "internalType": "uint256",
              "name": "totalGuaranteed",
              "type": "uint256"
            }
          ],
          "internalType": "struct ApplicationLoan.LoanDetails[]",
          "name": "",
          "type": "tuple[]"
        }
      ],
      "stateMutability": "view",
      "type": "function"
    },
    {
      "inputs": [
        {
          "internalType": "uint256",
          "name": "_loanId",
          "type": "uint256"
        }
      ],
      "name": "getLoan",
      "outputs": [
        {
          "components": [
            {
              "internalType": "address",
              "name": "owner",
              "type": "address"
            },
            {
              "internalType": "string",
              "name": "title",
              "type": "string"
            },
            {
              "internalType": "string",
              "name": "description",
              "type": "string"
            },
            {
              "internalType": "uint256",
              "name": "amount",
              "type": "uint256"
            },
            {
              "internalType": "uint256",
              "name": "target",
              "type": "uint256"
            },
            {
              "internalType": "uint256",
              "name": "deadline",
              "type": "uint256"
            },
            {
              "internalType": "uint256",
              "name": "isLoanActive",
              "type": "uint256"
            },
            {
              "internalType": "bool",
              "name": "acceptedTerms",
              "type": "bool"
            },
            {
              "internalType": "address[]",
              "name": "guarantors",
              "type": "address[]"
            },
            {
              "internalType": "uint256[]",
              "name": "guaranteedAmounts",
              "type": "uint256[]"
            },
            {
              "internalType": "uint256",
              "name": "totalPaid",
              "type": "uint256"
            },
            {
              "internalType": "uint256",
              "name": "totalGuaranteed",
              "type": "uint256"
            }
          ],
          "internalType": "struct ApplicationLoan.LoanDetails",
          "name": "",
          "type": "tuple"
        }
      ],
      "stateMutability": "view",
      "type": "function"
    },
    {
      "inputs": [
        {
          "internalType": "address",
          "name": "_user",
          "type": "address"
        }
      ],
      "name": "hasUnpaidLoans",
      "outputs": [
        {
          "internalType": "bool",
          "name": "",
          "type": "bool"
        }
      ],
      "stateMutability": "view",
      "type": "function"
    },
    {
      "inputs": [
        {
          "internalType": "uint256",
          "name": "_loanId",
          "type": "uint256"
        }
      ],
      "name": "isGuaranteeAprop",
      "outputs": [
        {
          "internalType": "bool",
          "name": "",
          "type": "bool"
        }
      ],
      "stateMutability": "view",
      "type": "function"
    },
    {
      "inputs": [],
      "name": "loanCounter",
      "outputs": [
        {
          "internalType": "uint256",
          "name": "",
          "type": "uint256"
        }
      ],
      "stateMutability": "view",
      "type": "function"
    },
    {
      "inputs": [
        {
          "internalType": "uint256",
          "name": "",
          "type": "uint256"
        }
      ],
      "name": "loans",
      "outputs": [
        {
          "internalType": "address",
          "name": "owner",
          "type": "address"
        },
        {
          "internalType": "string",
          "name": "title",
          "type": "string"
        },
        {
          "internalType": "string",
          "name": "description",
          "type": "string"
        },
        {
          "internalType": "uint256",
          "name": "amount",
          "type": "uint256"
        },
        {
          "internalType": "uint256",
          "name": "target",
          "type": "uint256"
        },
        {
          "internalType": "uint256",
          "name": "deadline",
          "type": "uint256"
        },
        {
          "internalType": "uint256",
          "name": "isLoanActive",
          "type": "uint256"
        },
        {
          "internalType": "bool",
          "name": "acceptedTerms",
          "type": "bool"
        },
        {
          "internalType": "uint256",
          "name": "totalPaid",
          "type": "uint256"
        },
        {
          "internalType": "uint256",
          "name": "totalGuaranteed",
          "type": "uint256"
        }
      ],
      "stateMutability": "view",
      "type": "function"
    },
    {
      "inputs": [
        {
          "internalType": "uint256",
          "name": "_loanId",
          "type": "uint256"
        },
        {
          "internalType": "uint256",
          "name": "_amount",
          "type": "uint256"
        }
      ],
      "name": "makePayment",
      "outputs": [],
      "stateMutability": "nonpayable",
      "type": "function"
    },
    {
      "inputs": [
        {
          "internalType": "uint256",
          "name": "_loanId",
          "type": "uint256"
        },
        {
          "internalType": "uint256",
          "name": "_amount",
          "type": "uint256"
        }
      ],
      "name": "provideLoan",
      "outputs": [],
      "stateMutability": "nonpayable",
      "type": "function"
    },
    {
      "inputs": [],
      "name": "stablecoin",
      "outputs": [
        {
          "internalType": "contract IERC20",
          "name": "",
          "type": "address"
        }
      ],
      "stateMutability": "view",
      "type": "function"
    }
  ],
  "bytecode": "0x60806040523480156200001157600080fd5b5060405162003233380380620032338339818101604052810190620000379190620000e9565b80600260006101000a81548173ffffffffffffffffffffffffffffffffffffffff021916908373ffffffffffffffffffffffffffffffffffffffff160217905550506200011b565b600080fd5b600073ffffffffffffffffffffffffffffffffffffffff82169050919050565b6000620000b18262000084565b9050919050565b620000c381620000a4565b8114620000cf57600080fd5b50565b600081519050620000e381620000b8565b92915050565b6000602082840312156200010257620001016200007f565b5b60006200011284828501620000d2565b91505092915050565b613108806200012b6000396000f3fe608060405234801561001057600080fd5b50600436106100b45760003560e01c806397e69edc1161007157806397e69edc1461018d578063a5bfd16a146101bd578063d390f974146101db578063e02b570d146101f7578063e1ec3c6814610227578063e9cbd82214610260576100b4565b806317d465f3146100b957806323dbe888146100d7578063265e8e18146100f357806334d9289e1461010f578063504006ca1461012d57806374dec1281461015d575b600080fd5b6100c161027e565b6040516100ce9190611f96565b60405180910390f35b6100f160048036038101906100ec9190611ff8565b610676565b005b61010d60048036038101906101089190611ff8565b610964565b005b610117610b62565b6040516101249190612047565b60405180910390f35b61014760048036038101906101429190612062565b610b68565b60405161015491906121a8565b60405180910390f35b610177600480360381019061017291906121f6565b610e37565b6040516101849190612232565b60405180910390f35b6101a760048036038101906101a291906123ae565b610efb565b6040516101b49190612047565b60405180910390f35b6101c56111c7565b6040516101d2919061264e565b60405180910390f35b6101f560048036038101906101f09190611ff8565b611538565b005b610211600480360381019061020c9190612062565b611791565b60405161021e9190612232565b60405180910390f35b610241600480360381019061023c9190612062565b6117bb565b6040516102579a999897969594939291906126c9565b60405180910390f35b61026861194c565b60405161027591906127d2565b60405180910390f35b6060600080600190505b60015481116102d057600260008083815260200190815260200160002060060154036102bd5781806102b99061281c565b9250505b80806102c89061281c565b915050610288565b5060008167ffffffffffffffff8111156102ed576102ec612257565b5b60405190808252806020026020018201604052801561032657816020015b610313611972565b81526020019060019003908161030b5790505b509050600080600190505b600154811161066c576002600080838152602001908152602001600020600601540361065957600080828152602001908152602001600020604051806101800160405290816000820160009054906101000a900473ffffffffffffffffffffffffffffffffffffffff1673ffffffffffffffffffffffffffffffffffffffff1673ffffffffffffffffffffffffffffffffffffffff1681526020016001820180546103db90612893565b80601f016020809104026020016040519081016040528092919081815260200182805461040790612893565b80156104545780601f1061042957610100808354040283529160200191610454565b820191906000526020600020905b81548152906001019060200180831161043757829003601f168201915b5050505050815260200160028201805461046d90612893565b80601f016020809104026020016040519081016040528092919081815260200182805461049990612893565b80156104e65780601f106104bb576101008083540402835291602001916104e6565b820191906000526020600020905b8154815290600101906020018083116104c957829003601f168201915b50505050508152602001600382015481526020016004820154815260200160058201548152602001600682015481526020016007820160009054906101000a900460ff16151515158152602001600882018054806020026020016040519081016040528092919081815260200182805480156105b757602002820191906000526020600020905b8160009054906101000a900473ffffffffffffffffffffffffffffffffffffffff1673ffffffffffffffffffffffffffffffffffffffff168152602001906001019080831161056d575b505050505081526020016009820180548060200260200160405190810160405280929190818152602001828054801561060f57602002820191906000526020600020905b8154815260200190600101908083116105fb575b50505050508152602001600a8201548152602001600b8201548152505083838151811061063f5761063e6128c4565b5b602002602001018190525081806106559061281c565b9250505b80806106649061281c565b915050610331565b5081935050505090565b61067f33610e37565b156106bf576040517f08c379a00000000000000000000000000000000000000000000000000000000081526004016106b690612965565b60405180910390fd5b60008060008481526020019081526020016000209050600181600601541461071c576040517f08c379a0000000000000000000000000000000000000000000000000000000008152600401610713906129f7565b60405180910390fd5b6001816006015414610763576040517f08c379a000000000000000000000000000000000000000000000000000000000815260040161075a906129f7565b60405180910390fd5b80600301548282600b01546107789190612a17565b11156107b9576040517f08c379a00000000000000000000000000000000000000000000000000000000081526004016107b090612a97565b60405180910390fd5b600260009054906101000a900473ffffffffffffffffffffffffffffffffffffffff1673ffffffffffffffffffffffffffffffffffffffff166323b872dd3330856040518463ffffffff1660e01b815260040161081893929190612ab7565b6020604051808303816000875af1158015610837573d6000803e3d6000fd5b505050506040513d601f19601f8201168201806040525081019061085b9190612b03565b61089a576040517f08c379a000000000000000000000000000000000000000000000000000000000815260040161089190612b7c565b60405180910390fd5b80600801339080600181540180825580915050600190039060005260206000200160009091909190916101000a81548173ffffffffffffffffffffffffffffffffffffffff021916908373ffffffffffffffffffffffffffffffffffffffff160217905550806009018290806001815401808255809150506001900390600052602060002001600090919091909150558181600b01600082825461093e9190612a17565b92505081905550806003015481600b01540361095f57600281600601819055505b505050565b6000806000848152602001908152602001600020905060028160060154146109c1576040517f08c379a00000000000000000000000000000000000000000000000000000000081526004016109b890612c0e565b60405180910390fd5b6002816006015414610a08576040517f08c379a00000000000000000000000000000000000000000000000000000000081526004016109ff90612c0e565b60405180910390fd5b80600301548214610a4e576040517f08c379a0000000000000000000000000000000000000000000000000000000008152600401610a4590612c7a565b60405180910390fd5b600260009054906101000a900473ffffffffffffffffffffffffffffffffffffffff1673ffffffffffffffffffffffffffffffffffffffff166323b872dd338360000160009054906101000a900473ffffffffffffffffffffffffffffffffffffffff16856040518463ffffffff1660e01b8152600401610ad193929190612ab7565b6020604051808303816000875af1158015610af0573d6000803e3d6000fd5b505050506040513d601f19601f82011682018060405250810190610b149190612b03565b610b53576040517f08c379a0000000000000000000000000000000000000000000000000000000008152600401610b4a90612b7c565b60405180910390fd5b60038160060181905550505050565b60015481565b610b706119eb565b600080600084815260200190815260200160002090506040518061018001604052808260000160009054906101000a900473ffffffffffffffffffffffffffffffffffffffff1673ffffffffffffffffffffffffffffffffffffffff168152602001826001018054610be190612893565b80601f0160208091040260200160405190810160405280929190818152602001828054610c0d90612893565b8015610c5a5780601f10610c2f57610100808354040283529160200191610c5a565b820191906000526020600020905b815481529060010190602001808311610c3d57829003601f168201915b50505050508152602001826002018054610c7390612893565b80601f0160208091040260200160405190810160405280929190818152602001828054610c9f90612893565b8015610cec5780601f10610cc157610100808354040283529160200191610cec565b820191906000526020600020905b815481529060010190602001808311610ccf57829003601f168201915b50505050508152602001826003015481526020018260040154815260200182600501548152602001826006015481526020018260070160009054906101000a900460ff161515815260200182600801805480602002602001604051908101604052809291908181526020018280548015610dbb57602002820191906000526020600020905b8160009054906101000a900473ffffffffffffffffffffffffffffffffffffffff1673ffffffffffffffffffffffffffffffffffffffff1681526020019060010190808311610d71575b5050505050815260200182600901805480602002602001604051908101604052809291908181526020018280548015610e1357602002820191906000526020600020905b815481526020019060010190808311610dff575b5050505050815260200182600a0154815260200182600b0154815250915050919050565b600080600190505b6001548111610ef0578273ffffffffffffffffffffffffffffffffffffffff1660008083815260200190815260200160002060000160009054906101000a900473ffffffffffffffffffffffffffffffffffffffff1673ffffffffffffffffffffffffffffffffffffffff16148015610ece575060046000808381526020019081526020016000206006015414155b15610edd576001915050610ef6565b8080610ee89061281c565b915050610e3f565b50600090505b919050565b600081610f3d576040517f08c379a0000000000000000000000000000000000000000000000000000000008152600401610f3490612d0c565b60405180910390fd5b81610f7d576040517f08c379a0000000000000000000000000000000000000000000000000000000008152600401610f7490612d0c565b60405180910390fd5b60016000815480929190610f909061281c565b91905055506040518061018001604052803373ffffffffffffffffffffffffffffffffffffffff168152602001888152602001878152602001868152602001858152602001848152602001600181526020018315158152602001600067ffffffffffffffff81111561100557611004612257565b5b6040519080825280602002602001820160405280156110335781602001602082028036833780820191505090505b508152602001600067ffffffffffffffff81111561105457611053612257565b5b6040519080825280602002602001820160405280156110825781602001602082028036833780820191505090505b508152602001600081526020016000815250600080600154815260200190815260200160002060008201518160000160006101000a81548173ffffffffffffffffffffffffffffffffffffffff021916908373ffffffffffffffffffffffffffffffffffffffff16021790555060208201518160010190816111049190612ece565b50604082015181600201908161111a9190612ece565b50606082015181600301556080820151816004015560a0820151816005015560c0820151816006015560e08201518160070160006101000a81548160ff021916908315150217905550610100820151816008019080519060200190611180929190611a64565b5061012082015181600901908051906020019061119e929190611aee565b5061014082015181600a015561016082015181600b015590505060015490509695505050505050565b6060600060015467ffffffffffffffff8111156111e7576111e6612257565b5b60405190808252806020026020018201604052801561122057816020015b61120d6119eb565b8152602001906001900390816112055790505b5090506000600190505b600154811161153057600080600083815260200190815260200160002090506040518061018001604052808260000160009054906101000a900473ffffffffffffffffffffffffffffffffffffffff1673ffffffffffffffffffffffffffffffffffffffff1681526020018260010180546112a490612893565b80601f01602080910402602001604051908101604052809291908181526020018280546112d090612893565b801561131d5780601f106112f25761010080835404028352916020019161131d565b820191906000526020600020905b81548152906001019060200180831161130057829003601f168201915b5050505050815260200182600201805461133690612893565b80601f016020809104026020016040519081016040528092919081815260200182805461136290612893565b80156113af5780601f10611384576101008083540402835291602001916113af565b820191906000526020600020905b81548152906001019060200180831161139257829003601f168201915b50505050508152602001826003015481526020018260040154815260200182600501548152602001826006015481526020018260070160009054906101000a900460ff16151581526020018260080180548060200260200160405190810160405280929190818152602001828054801561147e57602002820191906000526020600020905b8160009054906101000a900473ffffffffffffffffffffffffffffffffffffffff1673ffffffffffffffffffffffffffffffffffffffff1681526020019060010190808311611434575b50505050508152602001826009018054806020026020016040519081016040528092919081815260200182805480156114d657602002820191906000526020600020905b8154815260200190600101908083116114c2575b5050505050815260200182600a0154815260200182600b0154815250836001846115009190612fa0565b81518110611511576115106128c4565b5b60200260200101819052505080806115289061281c565b91505061122a565b508091505090565b60036000808481526020019081526020016000206006015414611590576040517f08c379a000000000000000000000000000000000000000000000000000000000815260040161158790613020565b60405180910390fd5b60008083815260200190815260200160002060000160009054906101000a900473ffffffffffffffffffffffffffffffffffffffff1673ffffffffffffffffffffffffffffffffffffffff163373ffffffffffffffffffffffffffffffffffffffff1614611633576040517f08c379a000000000000000000000000000000000000000000000000000000000815260040161162a906130b2565b60405180910390fd5b600260009054906101000a900473ffffffffffffffffffffffffffffffffffffffff1673ffffffffffffffffffffffffffffffffffffffff166323b872dd3330846040518463ffffffff1660e01b815260040161169293929190612ab7565b6020604051808303816000875af11580156116b1573d6000803e3d6000fd5b505050506040513d601f19601f820116820180604052508101906116d59190612b03565b611714576040517f08c379a000000000000000000000000000000000000000000000000000000000815260040161170b90612b7c565b60405180910390fd5b80600080848152602001908152602001600020600a0160008282546117399190612a17565b9250508190555060008083815260200190815260200160002060030154600080848152602001908152602001600020600a01541061178d576004600080848152602001908152602001600020600601819055505b5050565b6000806000808481526020019081526020016000209050806003015481600b015414915050919050565b60006020528060005260406000206000915090508060000160009054906101000a900473ffffffffffffffffffffffffffffffffffffffff169080600101805461180490612893565b80601f016020809104026020016040519081016040528092919081815260200182805461183090612893565b801561187d5780601f106118525761010080835404028352916020019161187d565b820191906000526020600020905b81548152906001019060200180831161186057829003601f168201915b50505050509080600201805461189290612893565b80601f01602080910402602001604051908101604052809291908181526020018280546118be90612893565b801561190b5780601f106118e05761010080835404028352916020019161190b565b820191906000526020600020905b8154815290600101906020018083116118ee57829003601f168201915b5050505050908060030154908060040154908060050154908060060154908060070160009054906101000a900460ff169080600a01549080600b015490508a565b600260009054906101000a900473ffffffffffffffffffffffffffffffffffffffff1681565b604051806101800160405280600073ffffffffffffffffffffffffffffffffffffffff168152602001606081526020016060815260200160008152602001600081526020016000815260200160008152602001600015158152602001606081526020016060815260200160008152602001600081525090565b604051806101800160405280600073ffffffffffffffffffffffffffffffffffffffff168152602001606081526020016060815260200160008152602001600081526020016000815260200160008152602001600015158152602001606081526020016060815260200160008152602001600081525090565b828054828255906000526020600020908101928215611add579160200282015b82811115611adc5782518260006101000a81548173ffffffffffffffffffffffffffffffffffffffff021916908373ffffffffffffffffffffffffffffffffffffffff16021790555091602001919060010190611a84565b5b509050611aea9190611b3b565b5090565b828054828255906000526020600020908101928215611b2a579160200282015b82811115611b29578251825591602001919060010190611b0e565b5b509050611b379190611b3b565b5090565b5b80821115611b54576000816000905550600101611b3c565b5090565b600081519050919050565b600082825260208201905092915050565b6000819050602082019050919050565b600073ffffffffffffffffffffffffffffffffffffffff82169050919050565b6000611baf82611b84565b9050919050565b611bbf81611ba4565b82525050565b600081519050919050565b600082825260208201905092915050565b60005b83811015611bff578082015181840152602081019050611be4565b60008484015250505050565b6000601f19601f8301169050919050565b6000611c2782611bc5565b611c318185611bd0565b9350611c41818560208601611be1565b611c4a81611c0b565b840191505092915050565b6000819050919050565b611c6881611c55565b82525050565b60008115159050919050565b611c8381611c6e565b82525050565b600081519050919050565b600082825260208201905092915050565b6000819050602082019050919050565b6000611cc18383611bb6565b60208301905092915050565b6000602082019050919050565b6000611ce582611c89565b611cef8185611c94565b9350611cfa83611ca5565b8060005b83811015611d2b578151611d128882611cb5565b9750611d1d83611ccd565b925050600181019050611cfe565b5085935050505092915050565b600081519050919050565b600082825260208201905092915050565b6000819050602082019050919050565b6000611d708383611c5f565b60208301905092915050565b6000602082019050919050565b6000611d9482611d38565b611d9e8185611d43565b9350611da983611d54565b8060005b83811015611dda578151611dc18882611d64565b9750611dcc83611d7c565b925050600181019050611dad565b5085935050505092915050565b600061018083016000830151611e006000860182611bb6565b5060208301518482036020860152611e188282611c1c565b91505060408301518482036040860152611e328282611c1c565b9150506060830151611e476060860182611c5f565b506080830151611e5a6080860182611c5f565b5060a0830151611e6d60a0860182611c5f565b5060c0830151611e8060c0860182611c5f565b5060e0830151611e9360e0860182611c7a565b50610100830151848203610100860152611ead8282611cda565b915050610120830151848203610120860152611ec98282611d89565b915050610140830151611ee0610140860182611c5f565b50610160830151611ef5610160860182611c5f565b508091505092915050565b6000611f0c8383611de7565b905092915050565b6000602082019050919050565b6000611f2c82611b58565b611f368185611b63565b935083602082028501611f4885611b74565b8060005b85811015611f845784840389528151611f658582611f00565b9450611f7083611f14565b925060208a01995050600181019050611f4c565b50829750879550505050505092915050565b60006020820190508181036000830152611fb08184611f21565b905092915050565b6000604051905090565b600080fd5b600080fd5b611fd581611c55565b8114611fe057600080fd5b50565b600081359050611ff281611fcc565b92915050565b6000806040838503121561200f5761200e611fc2565b5b600061201d85828601611fe3565b925050602061202e85828601611fe3565b9150509250929050565b61204181611c55565b82525050565b600060208201905061205c6000830184612038565b92915050565b60006020828403121561207857612077611fc2565b5b600061208684828501611fe3565b91505092915050565b6000610180830160008301516120a86000860182611bb6565b50602083015184820360208601526120c08282611c1c565b915050604083015184820360408601526120da8282611c1c565b91505060608301516120ef6060860182611c5f565b5060808301516121026080860182611c5f565b5060a083015161211560a0860182611c5f565b5060c083015161212860c0860182611c5f565b5060e083015161213b60e0860182611c7a565b506101008301518482036101008601526121558282611cda565b9150506101208301518482036101208601526121718282611d89565b915050610140830151612188610140860182611c5f565b5061016083015161219d610160860182611c5f565b508091505092915050565b600060208201905081810360008301526121c2818461208f565b905092915050565b6121d381611ba4565b81146121de57600080fd5b50565b6000813590506121f0816121ca565b92915050565b60006020828403121561220c5761220b611fc2565b5b600061221a848285016121e1565b91505092915050565b61222c81611c6e565b82525050565b60006020820190506122476000830184612223565b92915050565b600080fd5b600080fd5b7f4e487b7100000000000000000000000000000000000000000000000000000000600052604160045260246000fd5b61228f82611c0b565b810181811067ffffffffffffffff821117156122ae576122ad612257565b5b80604052505050565b60006122c1611fb8565b90506122cd8282612286565b919050565b600067ffffffffffffffff8211156122ed576122ec612257565b5b6122f682611c0b565b9050602081019050919050565b82818337600083830152505050565b6000612325612320846122d2565b6122b7565b90508281526020810184848401111561234157612340612252565b5b61234c848285612303565b509392505050565b600082601f8301126123695761236861224d565b5b8135612379848260208601612312565b91505092915050565b61238b81611c6e565b811461239657600080fd5b50565b6000813590506123a881612382565b92915050565b60008060008060008060c087890312156123cb576123ca611fc2565b5b600087013567ffffffffffffffff8111156123e9576123e8611fc7565b5b6123f589828a01612354565b965050602087013567ffffffffffffffff81111561241657612415611fc7565b5b61242289828a01612354565b955050604061243389828a01611fe3565b945050606061244489828a01611fe3565b935050608061245589828a01611fe3565b92505060a061246689828a01612399565b9150509295509295509295565b600081519050919050565b600082825260208201905092915050565b6000819050602082019050919050565b6000610180830160008301516124b86000860182611bb6565b50602083015184820360208601526124d08282611c1c565b915050604083015184820360408601526124ea8282611c1c565b91505060608301516124ff6060860182611c5f565b5060808301516125126080860182611c5f565b5060a083015161252560a0860182611c5f565b5060c083015161253860c0860182611c5f565b5060e083015161254b60e0860182611c7a565b506101008301518482036101008601526125658282611cda565b9150506101208301518482036101208601526125818282611d89565b915050610140830151612598610140860182611c5f565b506101608301516125ad610160860182611c5f565b508091505092915050565b60006125c4838361249f565b905092915050565b6000602082019050919050565b60006125e482612473565b6125ee818561247e565b9350836020820285016126008561248f565b8060005b8581101561263c578484038952815161261d85826125b8565b9450612628836125cc565b925060208a01995050600181019050612604565b50829750879550505050505092915050565b6000602082019050818103600083015261266881846125d9565b905092915050565b61267981611ba4565b82525050565b600082825260208201905092915050565b600061269b82611bc5565b6126a5818561267f565b93506126b5818560208601611be1565b6126be81611c0b565b840191505092915050565b6000610140820190506126df600083018d612670565b81810360208301526126f1818c612690565b90508181036040830152612705818b612690565b9050612714606083018a612038565b6127216080830189612038565b61272e60a0830188612038565b61273b60c0830187612038565b61274860e0830186612223565b612756610100830185612038565b612764610120830184612038565b9b9a5050505050505050505050565b6000819050919050565b600061279861279361278e84611b84565b612773565b611b84565b9050919050565b60006127aa8261277d565b9050919050565b60006127bc8261279f565b9050919050565b6127cc816127b1565b82525050565b60006020820190506127e760008301846127c3565b92915050565b7f4e487b7100000000000000000000000000000000000000000000000000000000600052601160045260246000fd5b600061282782611c55565b91507fffffffffffffffffffffffffffffffffffffffffffffffffffffffffffffffff8203612859576128586127ed565b5b600182019050919050565b7f4e487b7100000000000000000000000000000000000000000000000000000000600052602260045260246000fd5b600060028204905060018216806128ab57607f821691505b6020821081036128be576128bd612864565b5b50919050565b7f4e487b7100000000000000000000000000000000000000000000000000000000600052603260045260246000fd5b7f557365722068617320756e70616964206c6f616e7320616e642063616e6e6f7460008201527f20626520612067756172616e746f722e00000000000000000000000000000000602082015250565b600061294f60308361267f565b915061295a826128f3565b604082019050919050565b6000602082019050818103600083015261297e81612942565b9050919050565b7f4c6f616e206973206e6f7420616363657074696e672067756172616e7465657360008201527f2e00000000000000000000000000000000000000000000000000000000000000602082015250565b60006129e160218361267f565b91506129ec82612985565b604082019050919050565b60006020820190508181036000830152612a10816129d4565b9050919050565b6000612a2282611c55565b9150612a2d83611c55565b9250828201905080821115612a4557612a446127ed565b5b92915050565b7f47756172616e7465652065786365656473206c6f616e20616d6f756e742e0000600082015250565b6000612a81601e8361267f565b9150612a8c82612a4b565b602082019050919050565b60006020820190508181036000830152612ab081612a74565b9050919050565b6000606082019050612acc6000830186612670565b612ad96020830185612670565b612ae66040830184612038565b949350505050565b600081519050612afd81612382565b92915050565b600060208284031215612b1957612b18611fc2565b5b6000612b2784828501612aee565b91505092915050565b7f537461626c65636f696e207472616e73666572206661696c65642e0000000000600082015250565b6000612b66601b8361267f565b9150612b7182612b30565b602082019050919050565b60006020820190508181036000830152612b9581612b59565b9050919050565b7f4c6f616e206973206e6f742066756c6c792067756172616e746565642079657460008201527f2e00000000000000000000000000000000000000000000000000000000000000602082015250565b6000612bf860218361267f565b9150612c0382612b9c565b604082019050919050565b60006020820190508181036000830152612c2781612beb565b9050919050565b7f4c6f616e20616d6f756e7420646f6573206e6f74206d617463682e0000000000600082015250565b6000612c64601b8361267f565b9150612c6f82612c2e565b602082019050919050565b60006020820190508181036000830152612c9381612c57565b9050919050565b7f5465726d7320616e6420636f6e646974696f6e73206d7573742062652061636360008201527f65707465642e0000000000000000000000000000000000000000000000000000602082015250565b6000612cf660268361267f565b9150612d0182612c9a565b604082019050919050565b60006020820190508181036000830152612d2581612ce9565b9050919050565b60008190508160005260206000209050919050565b60006020601f8301049050919050565b600082821b905092915050565b600060088302612d8e7fffffffffffffffffffffffffffffffffffffffffffffffffffffffffffffffff82612d51565b612d988683612d51565b95508019841693508086168417925050509392505050565b6000612dcb612dc6612dc184611c55565b612773565b611c55565b9050919050565b6000819050919050565b612de583612db0565b612df9612df182612dd2565b848454612d5e565b825550505050565b600090565b612e0e612e01565b612e19818484612ddc565b505050565b5b81811015612e3d57612e32600082612e06565b600181019050612e1f565b5050565b601f821115612e8257612e5381612d2c565b612e5c84612d41565b81016020851015612e6b578190505b612e7f612e7785612d41565b830182612e1e565b50505b505050565b600082821c905092915050565b6000612ea560001984600802612e87565b1980831691505092915050565b6000612ebe8383612e94565b9150826002028217905092915050565b612ed782611bc5565b67ffffffffffffffff811115612ef057612eef612257565b5b612efa8254612893565b612f05828285612e41565b600060209050601f831160018114612f385760008415612f26578287015190505b612f308582612eb2565b865550612f98565b601f198416612f4686612d2c565b60005b82811015612f6e57848901518255600182019150602085019450602081019050612f49565b86831015612f8b5784890151612f87601f891682612e94565b8355505b6001600288020188555050505b505050505050565b6000612fab82611c55565b9150612fb683611c55565b9250828203905081811115612fce57612fcd6127ed565b5b92915050565b7f4c6f616e206973206e6f742061637469766520666f72207061796d656e742e00600082015250565b600061300a601f8361267f565b915061301582612fd4565b602082019050919050565b6000602082019050818103600083015261303981612ffd565b9050919050565b7f4f6e6c792074686520626f72726f7765722063616e206d616b65207061796d6560008201527f6e74732e00000000000000000000000000000000000000000000000000000000602082015250565b600061309c60248361267f565b91506130a782613040565b604082019050919050565b600060208201905081810360008301526130cb8161308f565b905091905056fea2646970667358221220f731eeea1f7651b453d344d46845abce32775cc8039132bd74e2ae048e4b7d3364736f6c63430008180033",
  "linkReferences": {},
  "deployedLinkReferences": {}
}