{
  "_format": "hh-sol-artifact-1",
  "contractName": "ApplicationLoan",
  "sourceName": "contracts/ApplicationLoan.sol",
  "abi": [
    {
      "inputs": [
        {
          "internalType": "address",
          "name": "_transactionContractAddress",
          "type": "address"
        }
      ],
      "stateMutability": "nonpayable",
      "type": "constructor"
    },
    {
      "inputs": [],
      "name": "allLoanApprove",
      "outputs": [
        {
          "components": [
            {
              "internalType": "address",
              "name": "owner",
              "type": "address"
            },
            {
              "internalType": "string",
              "name": "title",
              "type": "string"
            },
            {
              "internalType": "string",
              "name": "description",
              "type": "string"
            },
            {
              "internalType": "uint256",
              "name": "amount",
              "type": "uint256"
            },
            {
              "internalType": "uint256",
              "name": "target",
              "type": "uint256"
            },
            {
              "internalType": "uint256",
              "name": "deadline",
              "type": "uint256"
            },
            {
              "internalType": "uint256",
              "name": "isLoanActive",
              "type": "uint256"
            },
            {
              "internalType": "bool",
              "name": "acceptedTerms",
              "type": "bool"
            },
            {
              "internalType": "address[]",
              "name": "guarantors",
              "type": "address[]"
            },
            {
              "internalType": "uint256[]",
              "name": "guaranteedAmounts",
              "type": "uint256[]"
            },
            {
              "internalType": "uint256",
              "name": "totalPaid",
              "type": "uint256"
            },
            {
              "internalType": "uint256",
              "name": "totalGuaranteed",
              "type": "uint256"
            }
          ],
          "internalType": "struct ApplicationLoan.Loan[]",
          "name": "",
          "type": "tuple[]"
        }
      ],
      "stateMutability": "view",
      "type": "function"
    },
    {
      "inputs": [
        {
          "internalType": "uint256",
          "name": "_loanId",
          "type": "uint256"
        },
        {
          "internalType": "uint256",
          "name": "_amount",
          "type": "uint256"
        }
      ],
      "name": "becomeGuarantor",
      "outputs": [],
      "stateMutability": "nonpayable",
      "type": "function"
    },
    {
      "inputs": [
        {
          "internalType": "string",
          "name": "_title",
          "type": "string"
        },
        {
          "internalType": "string",
          "name": "_description",
          "type": "string"
        },
        {
          "internalType": "uint256",
          "name": "_amount",
          "type": "uint256"
        },
        {
          "internalType": "uint256",
          "name": "_target",
          "type": "uint256"
        },
        {
          "internalType": "uint256",
          "name": "_deadline",
          "type": "uint256"
        },
        {
          "internalType": "bool",
          "name": "_acceptedTerms",
          "type": "bool"
        }
      ],
      "name": "createLoan",
      "outputs": [
        {
          "internalType": "uint256",
          "name": "",
          "type": "uint256"
        }
      ],
      "stateMutability": "nonpayable",
      "type": "function"
    },
    {
      "inputs": [],
      "name": "getAllLoans",
      "outputs": [
        {
          "components": [
            {
              "internalType": "address",
              "name": "owner",
              "type": "address"
            },
            {
              "internalType": "string",
              "name": "title",
              "type": "string"
            },
            {
              "internalType": "string",
              "name": "description",
              "type": "string"
            },
            {
              "internalType": "uint256",
              "name": "amount",
              "type": "uint256"
            },
            {
              "internalType": "uint256",
              "name": "target",
              "type": "uint256"
            },
            {
              "internalType": "uint256",
              "name": "deadline",
              "type": "uint256"
            },
            {
              "internalType": "uint256",
              "name": "isLoanActive",
              "type": "uint256"
            },
            {
              "internalType": "bool",
              "name": "acceptedTerms",
              "type": "bool"
            },
            {
              "internalType": "address[]",
              "name": "guarantors",
              "type": "address[]"
            },
            {
              "internalType": "uint256[]",
              "name": "guaranteedAmounts",
              "type": "uint256[]"
            },
            {
              "internalType": "uint256",
              "name": "totalPaid",
              "type": "uint256"
            },
            {
              "internalType": "uint256",
              "name": "totalGuaranteed",
              "type": "uint256"
            }
          ],
          "internalType": "struct ApplicationLoan.LoanDetails[]",
          "name": "",
          "type": "tuple[]"
        }
      ],
      "stateMutability": "view",
      "type": "function"
    },
    {
      "inputs": [
        {
          "internalType": "uint256",
          "name": "_loanId",
          "type": "uint256"
        }
      ],
      "name": "getLoan",
      "outputs": [
        {
          "components": [
            {
              "internalType": "address",
              "name": "owner",
              "type": "address"
            },
            {
              "internalType": "string",
              "name": "title",
              "type": "string"
            },
            {
              "internalType": "string",
              "name": "description",
              "type": "string"
            },
            {
              "internalType": "uint256",
              "name": "amount",
              "type": "uint256"
            },
            {
              "internalType": "uint256",
              "name": "target",
              "type": "uint256"
            },
            {
              "internalType": "uint256",
              "name": "deadline",
              "type": "uint256"
            },
            {
              "internalType": "uint256",
              "name": "isLoanActive",
              "type": "uint256"
            },
            {
              "internalType": "bool",
              "name": "acceptedTerms",
              "type": "bool"
            },
            {
              "internalType": "address[]",
              "name": "guarantors",
              "type": "address[]"
            },
            {
              "internalType": "uint256[]",
              "name": "guaranteedAmounts",
              "type": "uint256[]"
            },
            {
              "internalType": "uint256",
              "name": "totalPaid",
              "type": "uint256"
            },
            {
              "internalType": "uint256",
              "name": "totalGuaranteed",
              "type": "uint256"
            }
          ],
          "internalType": "struct ApplicationLoan.LoanDetails",
          "name": "",
          "type": "tuple"
        }
      ],
      "stateMutability": "view",
      "type": "function"
    },
    {
      "inputs": [
        {
          "internalType": "address",
          "name": "_user",
          "type": "address"
        }
      ],
      "name": "hasUnpaidLoans",
      "outputs": [
        {
          "internalType": "bool",
          "name": "",
          "type": "bool"
        }
      ],
      "stateMutability": "view",
      "type": "function"
    },
    {
      "inputs": [
        {
          "internalType": "uint256",
          "name": "_loanId",
          "type": "uint256"
        }
      ],
      "name": "isGuaranteeAprop",
      "outputs": [
        {
          "internalType": "bool",
          "name": "",
          "type": "bool"
        }
      ],
      "stateMutability": "view",
      "type": "function"
    },
    {
      "inputs": [],
      "name": "loanCounter",
      "outputs": [
        {
          "internalType": "uint256",
          "name": "",
          "type": "uint256"
        }
      ],
      "stateMutability": "view",
      "type": "function"
    },
    {
      "inputs": [
        {
          "internalType": "uint256",
          "name": "",
          "type": "uint256"
        }
      ],
      "name": "loans",
      "outputs": [
        {
          "internalType": "address",
          "name": "owner",
          "type": "address"
        },
        {
          "internalType": "string",
          "name": "title",
          "type": "string"
        },
        {
          "internalType": "string",
          "name": "description",
          "type": "string"
        },
        {
          "internalType": "uint256",
          "name": "amount",
          "type": "uint256"
        },
        {
          "internalType": "uint256",
          "name": "target",
          "type": "uint256"
        },
        {
          "internalType": "uint256",
          "name": "deadline",
          "type": "uint256"
        },
        {
          "internalType": "uint256",
          "name": "isLoanActive",
          "type": "uint256"
        },
        {
          "internalType": "bool",
          "name": "acceptedTerms",
          "type": "bool"
        },
        {
          "internalType": "uint256",
          "name": "totalPaid",
          "type": "uint256"
        },
        {
          "internalType": "uint256",
          "name": "totalGuaranteed",
          "type": "uint256"
        }
      ],
      "stateMutability": "view",
      "type": "function"
    },
    {
      "inputs": [
        {
          "internalType": "uint256",
          "name": "_loanId",
          "type": "uint256"
        },
        {
          "internalType": "uint256",
          "name": "_amount",
          "type": "uint256"
        }
      ],
      "name": "makePayment",
      "outputs": [],
      "stateMutability": "nonpayable",
      "type": "function"
    },
    {
      "inputs": [
        {
          "internalType": "uint256",
          "name": "_loanId",
          "type": "uint256"
        },
        {
          "internalType": "uint256",
          "name": "_amount",
          "type": "uint256"
        }
      ],
      "name": "provideLoan",
      "outputs": [],
      "stateMutability": "nonpayable",
      "type": "function"
    },
    {
      "inputs": [],
      "name": "transactionContract",
      "outputs": [
        {
          "internalType": "contract Transaction",
          "name": "",
          "type": "address"
        }
      ],
      "stateMutability": "view",
      "type": "function"
    }
  ],
  "bytecode": "0x60806040523480156200001157600080fd5b5060405162002ffa38038062002ffa8339818101604052810190620000379190620000e9565b80600260006101000a81548173ffffffffffffffffffffffffffffffffffffffff021916908373ffffffffffffffffffffffffffffffffffffffff160217905550506200011b565b600080fd5b600073ffffffffffffffffffffffffffffffffffffffff82169050919050565b6000620000b18262000084565b9050919050565b620000c381620000a4565b8114620000cf57600080fd5b50565b600081519050620000e381620000b8565b92915050565b6000602082840312156200010257620001016200007f565b5b60006200011284828501620000d2565b91505092915050565b612ecf806200012b6000396000f3fe608060405234801561001057600080fd5b50600436106100b45760003560e01c806374dec1281161007157806374dec1281461017b57806397e69edc146101ab578063a5bfd16a146101db578063d390f974146101f9578063e02b570d14610215578063e1ec3c6814610245576100b4565b806317d465f3146100b95780631f45275b146100d757806323dbe888146100f5578063265e8e181461011157806334d9289e1461012d578063504006ca1461014b575b600080fd5b6100c161027e565b6040516100ce9190611dfa565b60405180910390f35b6100df610674565b6040516100ec9190611e7b565b60405180910390f35b61010f600480360381019061010a9190611ed6565b61069a565b005b61012b60048036038101906101269190611ed6565b6108f1565b005b610135610a5a565b6040516101429190611f25565b60405180910390f35b61016560048036038101906101609190611f40565b610a60565b6040516101729190612086565b60405180910390f35b610195600480360381019061019091906120d4565b610d2f565b6040516101a29190612110565b60405180910390f35b6101c560048036038101906101c0919061228c565b610df3565b6040516101d29190611f25565b60405180910390f35b6101e361107f565b6040516101f0919061252c565b60405180910390f35b610213600480360381019061020e9190611ed6565b6113db565b005b61022f600480360381019061022a9190611f40565b61161b565b60405161023c9190612110565b60405180910390f35b61025f600480360381019061025a9190611f40565b611645565b6040516102759a999897969594939291906125a7565b60405180910390f35b6060600080600190505b60015481116102d057600260008083815260200190815260200160002060060154036102bd5781806102b990612680565b9250505b80806102c890612680565b915050610288565b60008267ffffffffffffffff8111156102ec576102eb612135565b5b60405190808252806020026020018201604052801561032557816020015b6103126117d6565b81526020019060019003908161030a5790505b5090506000600192505b600154831161066a576002600080858152602001908152602001600020600601540361065757600080848152602001908152602001600020604051806101800160405290816000820160009054906101000a900473ffffffffffffffffffffffffffffffffffffffff1673ffffffffffffffffffffffffffffffffffffffff1673ffffffffffffffffffffffffffffffffffffffff1681526020016001820180546103d9906126f7565b80601f0160208091040260200160405190810160405280929190818152602001828054610405906126f7565b80156104525780601f1061042757610100808354040283529160200191610452565b820191906000526020600020905b81548152906001019060200180831161043557829003601f168201915b5050505050815260200160028201805461046b906126f7565b80601f0160208091040260200160405190810160405280929190818152602001828054610497906126f7565b80156104e45780601f106104b9576101008083540402835291602001916104e4565b820191906000526020600020905b8154815290600101906020018083116104c757829003601f168201915b50505050508152602001600382015481526020016004820154815260200160058201548152602001600682015481526020016007820160009054906101000a900460ff16151515158152602001600882018054806020026020016040519081016040528092919081815260200182805480156105b557602002820191906000526020600020905b8160009054906101000a900473ffffffffffffffffffffffffffffffffffffffff1673ffffffffffffffffffffffffffffffffffffffff168152602001906001019080831161056b575b505050505081526020016009820180548060200260200160405190810160405280929190818152602001828054801561060d57602002820191906000526020600020905b8154815260200190600101908083116105f9575b50505050508152602001600a8201548152602001600b8201548152505082828151811061063d5761063c612728565b5b6020026020010181905250808061065390612680565b9150505b828061066290612680565b93505061032f565b8194505050505090565b600260009054906101000a900473ffffffffffffffffffffffffffffffffffffffff1681565b6106a333610d2f565b156106e3576040517f08c379a00000000000000000000000000000000000000000000000000000000081526004016106da906127c9565b60405180910390fd5b600080600084815260200190815260200160002090506001816006015414610740576040517f08c379a00000000000000000000000000000000000000000000000000000000081526004016107379061285b565b60405180910390fd5b80600301548282600b0154610755919061287b565b1115610796576040517f08c379a000000000000000000000000000000000000000000000000000000000815260040161078d906128fb565b60405180910390fd5b80600801339080600181540180825580915050600190039060005260206000200160009091909190916101000a81548173ffffffffffffffffffffffffffffffffffffffff021916908373ffffffffffffffffffffffffffffffffffffffff160217905550806009018290806001815401808255809150506001900390600052602060002001600090919091909150558181600b01600082825461083a919061287b565b92505081905550600260009054906101000a900473ffffffffffffffffffffffffffffffffffffffff1673ffffffffffffffffffffffffffffffffffffffff1663113341493385856040518463ffffffff1660e01b81526004016108a09392919061291b565b600060405180830381600087803b1580156108ba57600080fd5b505af11580156108ce573d6000803e3d6000fd5b50505050806003015481600b0154036108ec57600281600601819055505b505050565b60008060008481526020019081526020016000209050600281600601541461094e576040517f08c379a0000000000000000000000000000000000000000000000000000000008152600401610945906129c4565b60405180910390fd5b80600301548214610994576040517f08c379a000000000000000000000000000000000000000000000000000000000815260040161098b90612a30565b60405180910390fd5b600260009054906101000a900473ffffffffffffffffffffffffffffffffffffffff1673ffffffffffffffffffffffffffffffffffffffff166387e5708f338360000160009054906101000a900473ffffffffffffffffffffffffffffffffffffffff1686866040518563ffffffff1660e01b8152600401610a199493929190612a50565b600060405180830381600087803b158015610a3357600080fd5b505af1158015610a47573d6000803e3d6000fd5b5050505060038160060181905550505050565b60015481565b610a6861184f565b600080600084815260200190815260200160002090506040518061018001604052808260000160009054906101000a900473ffffffffffffffffffffffffffffffffffffffff1673ffffffffffffffffffffffffffffffffffffffff168152602001826001018054610ad9906126f7565b80601f0160208091040260200160405190810160405280929190818152602001828054610b05906126f7565b8015610b525780601f10610b2757610100808354040283529160200191610b52565b820191906000526020600020905b815481529060010190602001808311610b3557829003601f168201915b50505050508152602001826002018054610b6b906126f7565b80601f0160208091040260200160405190810160405280929190818152602001828054610b97906126f7565b8015610be45780601f10610bb957610100808354040283529160200191610be4565b820191906000526020600020905b815481529060010190602001808311610bc757829003601f168201915b50505050508152602001826003015481526020018260040154815260200182600501548152602001826006015481526020018260070160009054906101000a900460ff161515815260200182600801805480602002602001604051908101604052809291908181526020018280548015610cb357602002820191906000526020600020905b8160009054906101000a900473ffffffffffffffffffffffffffffffffffffffff1673ffffffffffffffffffffffffffffffffffffffff1681526020019060010190808311610c69575b5050505050815260200182600901805480602002602001604051908101604052809291908181526020018280548015610d0b57602002820191906000526020600020905b815481526020019060010190808311610cf7575b5050505050815260200182600a0154815260200182600b0154815250915050919050565b600080600190505b6001548111610de8578273ffffffffffffffffffffffffffffffffffffffff1660008083815260200190815260200160002060000160009054906101000a900473ffffffffffffffffffffffffffffffffffffffff1673ffffffffffffffffffffffffffffffffffffffff16148015610dc6575060046000808381526020019081526020016000206006015414155b15610dd5576001915050610dee565b8080610de090612680565b915050610d37565b50600090505b919050565b600081610e35576040517f08c379a0000000000000000000000000000000000000000000000000000000008152600401610e2c90612b07565b60405180910390fd5b60016000815480929190610e4890612680565b91905055506040518061018001604052803373ffffffffffffffffffffffffffffffffffffffff168152602001888152602001878152602001868152602001858152602001848152602001600181526020018315158152602001600067ffffffffffffffff811115610ebd57610ebc612135565b5b604051908082528060200260200182016040528015610eeb5781602001602082028036833780820191505090505b508152602001600067ffffffffffffffff811115610f0c57610f0b612135565b5b604051908082528060200260200182016040528015610f3a5781602001602082028036833780820191505090505b508152602001600081526020016000815250600080600154815260200190815260200160002060008201518160000160006101000a81548173ffffffffffffffffffffffffffffffffffffffff021916908373ffffffffffffffffffffffffffffffffffffffff1602179055506020820151816001019081610fbc9190612cc9565b506040820151816002019081610fd29190612cc9565b50606082015181600301556080820151816004015560a0820151816005015560c0820151816006015560e08201518160070160006101000a81548160ff0219169083151502179055506101008201518160080190805190602001906110389291906118c8565b50610120820151816009019080519060200190611056929190611952565b5061014082015181600a015561016082015181600b015590505060015490509695505050505050565b6060600060015467ffffffffffffffff81111561109f5761109e612135565b5b6040519080825280602002602001820160405280156110d857816020015b6110c561184f565b8152602001906001900390816110bd5790505b50905060005b6001548110156113d357600080600083815260200190815260200160002090506040518061018001604052808260000160009054906101000a900473ffffffffffffffffffffffffffffffffffffffff1673ffffffffffffffffffffffffffffffffffffffff168152602001826001018054611159906126f7565b80601f0160208091040260200160405190810160405280929190818152602001828054611185906126f7565b80156111d25780601f106111a7576101008083540402835291602001916111d2565b820191906000526020600020905b8154815290600101906020018083116111b557829003601f168201915b505050505081526020018260020180546111eb906126f7565b80601f0160208091040260200160405190810160405280929190818152602001828054611217906126f7565b80156112645780601f1061123957610100808354040283529160200191611264565b820191906000526020600020905b81548152906001019060200180831161124757829003601f168201915b50505050508152602001826003015481526020018260040154815260200182600501548152602001826006015481526020018260070160009054906101000a900460ff16151581526020018260080180548060200260200160405190810160405280929190818152602001828054801561133357602002820191906000526020600020905b8160009054906101000a900473ffffffffffffffffffffffffffffffffffffffff1673ffffffffffffffffffffffffffffffffffffffff16815260200190600101908083116112e9575b505050505081526020018260090180548060200260200160405190810160405280929190818152602001828054801561138b57602002820191906000526020600020905b815481526020019060010190808311611377575b5050505050815260200182600a0154815260200182600b01548152508383815181106113ba576113b9612728565b5b60200260200101819052505080806001019150506110de565b508091505090565b60036000808481526020019081526020016000206006015414611433576040517f08c379a000000000000000000000000000000000000000000000000000000000815260040161142a90612de7565b60405180910390fd5b60008083815260200190815260200160002060000160009054906101000a900473ffffffffffffffffffffffffffffffffffffffff1673ffffffffffffffffffffffffffffffffffffffff163373ffffffffffffffffffffffffffffffffffffffff16146114d6576040517f08c379a00000000000000000000000000000000000000000000000000000000081526004016114cd90612e79565b60405180910390fd5b80600080848152602001908152602001600020600a0160008282546114fb919061287b565b92505081905550600260009054906101000a900473ffffffffffffffffffffffffffffffffffffffff1673ffffffffffffffffffffffffffffffffffffffff166387e5708f60008085815260200190815260200160002060000160009054906101000a900473ffffffffffffffffffffffffffffffffffffffff163385856040518563ffffffff1660e01b81526004016115989493929190612a50565b600060405180830381600087803b1580156115b257600080fd5b505af11580156115c6573d6000803e3d6000fd5b5050505060008083815260200190815260200160002060030154600080848152602001908152602001600020600a015410611617576004600080848152602001908152602001600020600601819055505b5050565b6000806000808481526020019081526020016000209050806003015481600b015414915050919050565b60006020528060005260406000206000915090508060000160009054906101000a900473ffffffffffffffffffffffffffffffffffffffff169080600101805461168e906126f7565b80601f01602080910402602001604051908101604052809291908181526020018280546116ba906126f7565b80156117075780601f106116dc57610100808354040283529160200191611707565b820191906000526020600020905b8154815290600101906020018083116116ea57829003601f168201915b50505050509080600201805461171c906126f7565b80601f0160208091040260200160405190810160405280929190818152602001828054611748906126f7565b80156117955780601f1061176a57610100808354040283529160200191611795565b820191906000526020600020905b81548152906001019060200180831161177857829003601f168201915b5050505050908060030154908060040154908060050154908060060154908060070160009054906101000a900460ff169080600a01549080600b015490508a565b604051806101800160405280600073ffffffffffffffffffffffffffffffffffffffff168152602001606081526020016060815260200160008152602001600081526020016000815260200160008152602001600015158152602001606081526020016060815260200160008152602001600081525090565b604051806101800160405280600073ffffffffffffffffffffffffffffffffffffffff168152602001606081526020016060815260200160008152602001600081526020016000815260200160008152602001600015158152602001606081526020016060815260200160008152602001600081525090565b828054828255906000526020600020908101928215611941579160200282015b828111156119405782518260006101000a81548173ffffffffffffffffffffffffffffffffffffffff021916908373ffffffffffffffffffffffffffffffffffffffff160217905550916020019190600101906118e8565b5b50905061194e919061199f565b5090565b82805482825590600052602060002090810192821561198e579160200282015b8281111561198d578251825591602001919060010190611972565b5b50905061199b919061199f565b5090565b5b808211156119b85760008160009055506001016119a0565b5090565b600081519050919050565b600082825260208201905092915050565b6000819050602082019050919050565b600073ffffffffffffffffffffffffffffffffffffffff82169050919050565b6000611a13826119e8565b9050919050565b611a2381611a08565b82525050565b600081519050919050565b600082825260208201905092915050565b60005b83811015611a63578082015181840152602081019050611a48565b60008484015250505050565b6000601f19601f8301169050919050565b6000611a8b82611a29565b611a958185611a34565b9350611aa5818560208601611a45565b611aae81611a6f565b840191505092915050565b6000819050919050565b611acc81611ab9565b82525050565b60008115159050919050565b611ae781611ad2565b82525050565b600081519050919050565b600082825260208201905092915050565b6000819050602082019050919050565b6000611b258383611a1a565b60208301905092915050565b6000602082019050919050565b6000611b4982611aed565b611b538185611af8565b9350611b5e83611b09565b8060005b83811015611b8f578151611b768882611b19565b9750611b8183611b31565b925050600181019050611b62565b5085935050505092915050565b600081519050919050565b600082825260208201905092915050565b6000819050602082019050919050565b6000611bd48383611ac3565b60208301905092915050565b6000602082019050919050565b6000611bf882611b9c565b611c028185611ba7565b9350611c0d83611bb8565b8060005b83811015611c3e578151611c258882611bc8565b9750611c3083611be0565b925050600181019050611c11565b5085935050505092915050565b600061018083016000830151611c646000860182611a1a565b5060208301518482036020860152611c7c8282611a80565b91505060408301518482036040860152611c968282611a80565b9150506060830151611cab6060860182611ac3565b506080830151611cbe6080860182611ac3565b5060a0830151611cd160a0860182611ac3565b5060c0830151611ce460c0860182611ac3565b5060e0830151611cf760e0860182611ade565b50610100830151848203610100860152611d118282611b3e565b915050610120830151848203610120860152611d2d8282611bed565b915050610140830151611d44610140860182611ac3565b50610160830151611d59610160860182611ac3565b508091505092915050565b6000611d708383611c4b565b905092915050565b6000602082019050919050565b6000611d90826119bc565b611d9a81856119c7565b935083602082028501611dac856119d8565b8060005b85811015611de85784840389528151611dc98582611d64565b9450611dd483611d78565b925060208a01995050600181019050611db0565b50829750879550505050505092915050565b60006020820190508181036000830152611e148184611d85565b905092915050565b6000819050919050565b6000611e41611e3c611e37846119e8565b611e1c565b6119e8565b9050919050565b6000611e5382611e26565b9050919050565b6000611e6582611e48565b9050919050565b611e7581611e5a565b82525050565b6000602082019050611e906000830184611e6c565b92915050565b6000604051905090565b600080fd5b600080fd5b611eb381611ab9565b8114611ebe57600080fd5b50565b600081359050611ed081611eaa565b92915050565b60008060408385031215611eed57611eec611ea0565b5b6000611efb85828601611ec1565b9250506020611f0c85828601611ec1565b9150509250929050565b611f1f81611ab9565b82525050565b6000602082019050611f3a6000830184611f16565b92915050565b600060208284031215611f5657611f55611ea0565b5b6000611f6484828501611ec1565b91505092915050565b600061018083016000830151611f866000860182611a1a565b5060208301518482036020860152611f9e8282611a80565b91505060408301518482036040860152611fb88282611a80565b9150506060830151611fcd6060860182611ac3565b506080830151611fe06080860182611ac3565b5060a0830151611ff360a0860182611ac3565b5060c083015161200660c0860182611ac3565b5060e083015161201960e0860182611ade565b506101008301518482036101008601526120338282611b3e565b91505061012083015184820361012086015261204f8282611bed565b915050610140830151612066610140860182611ac3565b5061016083015161207b610160860182611ac3565b508091505092915050565b600060208201905081810360008301526120a08184611f6d565b905092915050565b6120b181611a08565b81146120bc57600080fd5b50565b6000813590506120ce816120a8565b92915050565b6000602082840312156120ea576120e9611ea0565b5b60006120f8848285016120bf565b91505092915050565b61210a81611ad2565b82525050565b60006020820190506121256000830184612101565b92915050565b600080fd5b600080fd5b7f4e487b7100000000000000000000000000000000000000000000000000000000600052604160045260246000fd5b61216d82611a6f565b810181811067ffffffffffffffff8211171561218c5761218b612135565b5b80604052505050565b600061219f611e96565b90506121ab8282612164565b919050565b600067ffffffffffffffff8211156121cb576121ca612135565b5b6121d482611a6f565b9050602081019050919050565b82818337600083830152505050565b60006122036121fe846121b0565b612195565b90508281526020810184848401111561221f5761221e612130565b5b61222a8482856121e1565b509392505050565b600082601f8301126122475761224661212b565b5b81356122578482602086016121f0565b91505092915050565b61226981611ad2565b811461227457600080fd5b50565b60008135905061228681612260565b92915050565b60008060008060008060c087890312156122a9576122a8611ea0565b5b600087013567ffffffffffffffff8111156122c7576122c6611ea5565b5b6122d389828a01612232565b965050602087013567ffffffffffffffff8111156122f4576122f3611ea5565b5b61230089828a01612232565b955050604061231189828a01611ec1565b945050606061232289828a01611ec1565b935050608061233389828a01611ec1565b92505060a061234489828a01612277565b9150509295509295509295565b600081519050919050565b600082825260208201905092915050565b6000819050602082019050919050565b6000610180830160008301516123966000860182611a1a565b50602083015184820360208601526123ae8282611a80565b915050604083015184820360408601526123c88282611a80565b91505060608301516123dd6060860182611ac3565b5060808301516123f06080860182611ac3565b5060a083015161240360a0860182611ac3565b5060c083015161241660c0860182611ac3565b5060e083015161242960e0860182611ade565b506101008301518482036101008601526124438282611b3e565b91505061012083015184820361012086015261245f8282611bed565b915050610140830151612476610140860182611ac3565b5061016083015161248b610160860182611ac3565b508091505092915050565b60006124a2838361237d565b905092915050565b6000602082019050919050565b60006124c282612351565b6124cc818561235c565b9350836020820285016124de8561236d565b8060005b8581101561251a57848403895281516124fb8582612496565b9450612506836124aa565b925060208a019950506001810190506124e2565b50829750879550505050505092915050565b6000602082019050818103600083015261254681846124b7565b905092915050565b61255781611a08565b82525050565b600082825260208201905092915050565b600061257982611a29565b612583818561255d565b9350612593818560208601611a45565b61259c81611a6f565b840191505092915050565b6000610140820190506125bd600083018d61254e565b81810360208301526125cf818c61256e565b905081810360408301526125e3818b61256e565b90506125f2606083018a611f16565b6125ff6080830189611f16565b61260c60a0830188611f16565b61261960c0830187611f16565b61262660e0830186612101565b612634610100830185611f16565b612642610120830184611f16565b9b9a5050505050505050505050565b7f4e487b7100000000000000000000000000000000000000000000000000000000600052601160045260246000fd5b600061268b82611ab9565b91507fffffffffffffffffffffffffffffffffffffffffffffffffffffffffffffffff82036126bd576126bc612651565b5b600182019050919050565b7f4e487b7100000000000000000000000000000000000000000000000000000000600052602260045260246000fd5b6000600282049050600182168061270f57607f821691505b602082108103612722576127216126c8565b5b50919050565b7f4e487b7100000000000000000000000000000000000000000000000000000000600052603260045260246000fd5b7f557365722068617320756e70616964206c6f616e7320616e642063616e6e6f7460008201527f20626520612067756172616e746f722e00000000000000000000000000000000602082015250565b60006127b360308361255d565b91506127be82612757565b604082019050919050565b600060208201905081810360008301526127e2816127a6565b9050919050565b7f4c6f616e206973206e6f7420616363657074696e672067756172616e7465657360008201527f2e00000000000000000000000000000000000000000000000000000000000000602082015250565b600061284560218361255d565b9150612850826127e9565b604082019050919050565b6000602082019050818103600083015261287481612838565b9050919050565b600061288682611ab9565b915061289183611ab9565b92508282019050808211156128a9576128a8612651565b5b92915050565b7f47756172616e7465652065786365656473206c6f616e20616d6f756e742e0000600082015250565b60006128e5601e8361255d565b91506128f0826128af565b602082019050919050565b60006020820190508181036000830152612914816128d8565b9050919050565b6000606082019050612930600083018661254e565b61293d6020830185611f16565b61294a6040830184611f16565b949350505050565b7f4c6f616e206973206e6f742066756c6c792067756172616e746565642079657460008201527f2e00000000000000000000000000000000000000000000000000000000000000602082015250565b60006129ae60218361255d565b91506129b982612952565b604082019050919050565b600060208201905081810360008301526129dd816129a1565b9050919050565b7f4c6f616e20616d6f756e7420646f6573206e6f74206d617463682e0000000000600082015250565b6000612a1a601b8361255d565b9150612a25826129e4565b602082019050919050565b60006020820190508181036000830152612a4981612a0d565b9050919050565b6000608082019050612a65600083018761254e565b612a72602083018661254e565b612a7f6040830185611f16565b612a8c6060830184611f16565b95945050505050565b7f5465726d7320616e6420636f6e646974696f6e73206d7573742062652061636360008201527f65707465642e0000000000000000000000000000000000000000000000000000602082015250565b6000612af160268361255d565b9150612afc82612a95565b604082019050919050565b60006020820190508181036000830152612b2081612ae4565b9050919050565b60008190508160005260206000209050919050565b60006020601f8301049050919050565b600082821b905092915050565b600060088302612b897fffffffffffffffffffffffffffffffffffffffffffffffffffffffffffffffff82612b4c565b612b938683612b4c565b95508019841693508086168417925050509392505050565b6000612bc6612bc1612bbc84611ab9565b611e1c565b611ab9565b9050919050565b6000819050919050565b612be083612bab565b612bf4612bec82612bcd565b848454612b59565b825550505050565b600090565b612c09612bfc565b612c14818484612bd7565b505050565b5b81811015612c3857612c2d600082612c01565b600181019050612c1a565b5050565b601f821115612c7d57612c4e81612b27565b612c5784612b3c565b81016020851015612c66578190505b612c7a612c7285612b3c565b830182612c19565b50505b505050565b600082821c905092915050565b6000612ca060001984600802612c82565b1980831691505092915050565b6000612cb98383612c8f565b9150826002028217905092915050565b612cd282611a29565b67ffffffffffffffff811115612ceb57612cea612135565b5b612cf582546126f7565b612d00828285612c3c565b600060209050601f831160018114612d335760008415612d21578287015190505b612d2b8582612cad565b865550612d93565b601f198416612d4186612b27565b60005b82811015612d6957848901518255600182019150602085019450602081019050612d44565b86831015612d865784890151612d82601f891682612c8f565b8355505b6001600288020188555050505b505050505050565b7f4c6f616e206973206e6f742061637469766520666f72207061796d656e742e00600082015250565b6000612dd1601f8361255d565b9150612ddc82612d9b565b602082019050919050565b60006020820190508181036000830152612e0081612dc4565b9050919050565b7f4f6e6c792074686520626f72726f7765722063616e206d616b65207061796d6560008201527f6e74732e00000000000000000000000000000000000000000000000000000000602082015250565b6000612e6360248361255d565b9150612e6e82612e07565b604082019050919050565b60006020820190508181036000830152612e9281612e56565b905091905056fea26469706673582212208147c07a2aa88d7220880bb26ded7a367ee3d64188e768c393baa8992441eaba64736f6c63430008180033",
  "linkReferences": {},
  "deployedLinkReferences": {}
}