{
  "_format": "hh-sol-artifact-1",
  "contractName": "Transaction",
  "sourceName": "contracts/Transaction.sol",
  "abi": [
    {
      "anonymous": false,
      "inputs": [
        {
          "indexed": true,
          "internalType": "address",
          "name": "guarantor",
          "type": "address"
        },
        {
          "indexed": false,
          "internalType": "uint256",
          "name": "loanId",
          "type": "uint256"
        },
        {
          "indexed": false,
          "internalType": "uint256",
          "name": "amount",
          "type": "uint256"
        }
      ],
      "name": "GuaranteeMade",
      "type": "event"
    },
    {
      "anonymous": false,
      "inputs": [
        {
          "indexed": true,
          "internalType": "address",
          "name": "borrower",
          "type": "address"
        },
        {
          "indexed": true,
          "internalType": "address",
          "name": "lender",
          "type": "address"
        },
        {
          "indexed": false,
          "internalType": "uint256",
          "name": "loanId",
          "type": "uint256"
        },
        {
          "indexed": false,
          "internalType": "uint256",
          "name": "amountPaid",
          "type": "uint256"
        },
        {
          "indexed": false,
          "internalType": "uint256",
          "name": "timestamp",
          "type": "uint256"
        }
      ],
      "name": "PaymentMade",
      "type": "event"
    },
    {
      "inputs": [
        {
          "internalType": "uint256",
          "name": "_loanId",
          "type": "uint256"
        }
      ],
      "name": "getGuarantees",
      "outputs": [
        {
          "components": [
            {
              "internalType": "address",
              "name": "guarantor",
              "type": "address"
            },
            {
              "internalType": "uint256",
              "name": "loanId",
              "type": "uint256"
            },
            {
              "internalType": "uint256",
              "name": "amount",
              "type": "uint256"
            },
            {
              "internalType": "bool",
              "name": "isHeld",
              "type": "bool"
            }
          ],
          "internalType": "struct Transaction.Guarantee[]",
          "name": "",
          "type": "tuple[]"
        }
      ],
      "stateMutability": "view",
      "type": "function"
    },
    {
      "inputs": [
        {
          "internalType": "uint256",
          "name": "_loanId",
          "type": "uint256"
        }
      ],
      "name": "getPayments",
      "outputs": [
        {
          "components": [
            {
              "internalType": "address",
              "name": "borrower",
              "type": "address"
            },
            {
              "internalType": "address",
              "name": "lender",
              "type": "address"
            },
            {
              "internalType": "uint256",
              "name": "loanId",
              "type": "uint256"
            },
            {
              "internalType": "uint256",
              "name": "amountPaid",
              "type": "uint256"
            },
            {
              "internalType": "uint256",
              "name": "timestamp",
              "type": "uint256"
            }
          ],
          "internalType": "struct Transaction.Payment[]",
          "name": "",
          "type": "tuple[]"
        }
      ],
      "stateMutability": "view",
      "type": "function"
    },
    {
      "inputs": [
        {
          "internalType": "uint256",
          "name": "",
          "type": "uint256"
        },
        {
          "internalType": "uint256",
          "name": "",
          "type": "uint256"
        }
      ],
      "name": "loanGuarantees",
      "outputs": [
        {
          "internalType": "address",
          "name": "guarantor",
          "type": "address"
        },
        {
          "internalType": "uint256",
          "name": "loanId",
          "type": "uint256"
        },
        {
          "internalType": "uint256",
          "name": "amount",
          "type": "uint256"
        },
        {
          "internalType": "bool",
          "name": "isHeld",
          "type": "bool"
        }
      ],
      "stateMutability": "view",
      "type": "function"
    },
    {
      "inputs": [
        {
          "internalType": "uint256",
          "name": "",
          "type": "uint256"
        },
        {
          "internalType": "uint256",
          "name": "",
          "type": "uint256"
        }
      ],
      "name": "loanPayments",
      "outputs": [
        {
          "internalType": "address",
          "name": "borrower",
          "type": "address"
        },
        {
          "internalType": "address",
          "name": "lender",
          "type": "address"
        },
        {
          "internalType": "uint256",
          "name": "loanId",
          "type": "uint256"
        },
        {
          "internalType": "uint256",
          "name": "amountPaid",
          "type": "uint256"
        },
        {
          "internalType": "uint256",
          "name": "timestamp",
          "type": "uint256"
        }
      ],
      "stateMutability": "view",
      "type": "function"
    },
    {
      "inputs": [
        {
          "internalType": "address",
          "name": "_guarantor",
          "type": "address"
        },
        {
          "internalType": "uint256",
          "name": "_loanId",
          "type": "uint256"
        },
        {
          "internalType": "uint256",
          "name": "_amount",
          "type": "uint256"
        }
      ],
      "name": "recordGuarantee",
      "outputs": [],
      "stateMutability": "nonpayable",
      "type": "function"
    },
    {
      "inputs": [
        {
          "internalType": "address",
          "name": "_borrower",
          "type": "address"
        },
        {
          "internalType": "address",
          "name": "_lender",
          "type": "address"
        },
        {
          "internalType": "uint256",
          "name": "_loanId",
          "type": "uint256"
        },
        {
          "internalType": "uint256",
          "name": "_amountPaid",
          "type": "uint256"
        }
      ],
      "name": "recordPayment",
      "outputs": [],
      "stateMutability": "nonpayable",
      "type": "function"
    }
  ],
  "bytecode": "0x608060405234801561001057600080fd5b50610d57806100206000396000f3fe608060405234801561001057600080fd5b50600436106100625760003560e01c8063113341491461006757806387e5708f14610083578063af3d3e981461009f578063b6887515146100d3578063bc1cecce14610103578063fe36519914610136575b600080fd5b610081600480360381019061007c919061083d565b610166565b005b61009d60048036038101906100989190610890565b6102b4565b005b6100b960048036038101906100b491906108f7565b610465565b6040516100ca959493929190610955565b60405180910390f35b6100ed60048036038101906100e891906109a8565b6104f8565b6040516100fa9190610b12565b60405180910390f35b61011d600480360381019061011891906108f7565b6105ef565b60405161012d9493929190610b43565b60405180910390f35b610150600480360381019061014b91906109a8565b610669565b60405161015d9190610c9f565b60405180910390f35b600060405180608001604052808573ffffffffffffffffffffffffffffffffffffffff1681526020018481526020018381526020016001151581525090506001600084815260200190815260200160002081908060018154018082558091505060019003906000526020600020906004020160009091909190915060008201518160000160006101000a81548173ffffffffffffffffffffffffffffffffffffffff021916908373ffffffffffffffffffffffffffffffffffffffff160217905550602082015181600101556040820151816002015560608201518160030160006101000a81548160ff02191690831515021790555050508373ffffffffffffffffffffffffffffffffffffffff167f8d6149bab0a9e14a14e1fb6560e5f976514b17b91f5b15c015fc50580836b84484846040516102a6929190610cc1565b60405180910390a250505050565b60006040518060a001604052808673ffffffffffffffffffffffffffffffffffffffff1681526020018573ffffffffffffffffffffffffffffffffffffffff16815260200184815260200183815260200142815250905060008084815260200190815260200160002081908060018154018082558091505060019003906000526020600020906005020160009091909190915060008201518160000160006101000a81548173ffffffffffffffffffffffffffffffffffffffff021916908373ffffffffffffffffffffffffffffffffffffffff16021790555060208201518160010160006101000a81548173ffffffffffffffffffffffffffffffffffffffff021916908373ffffffffffffffffffffffffffffffffffffffff16021790555060408201518160020155606082015181600301556080820151816004015550508373ffffffffffffffffffffffffffffffffffffffff168573ffffffffffffffffffffffffffffffffffffffff167f73bc067f8d6bb15a01636f9b76c6daa98472621717a0788af90498d8bfe69eb085854260405161045693929190610cea565b60405180910390a35050505050565b6000602052816000526040600020818154811061048157600080fd5b9060005260206000209060050201600091509150508060000160009054906101000a900473ffffffffffffffffffffffffffffffffffffffff16908060010160009054906101000a900473ffffffffffffffffffffffffffffffffffffffff16908060020154908060030154908060040154905085565b606060016000838152602001908152602001600020805480602002602001604051908101604052809291908181526020016000905b828210156105e457838290600052602060002090600402016040518060800160405290816000820160009054906101000a900473ffffffffffffffffffffffffffffffffffffffff1673ffffffffffffffffffffffffffffffffffffffff1673ffffffffffffffffffffffffffffffffffffffff16815260200160018201548152602001600282015481526020016003820160009054906101000a900460ff1615151515815250508152602001906001019061052d565b505050509050919050565b6001602052816000526040600020818154811061060b57600080fd5b9060005260206000209060040201600091509150508060000160009054906101000a900473ffffffffffffffffffffffffffffffffffffffff16908060010154908060020154908060030160009054906101000a900460ff16905084565b6060600080838152602001908152602001600020805480602002602001604051908101604052809291908181526020016000905b8282101561079957838290600052602060002090600502016040518060a00160405290816000820160009054906101000a900473ffffffffffffffffffffffffffffffffffffffff1673ffffffffffffffffffffffffffffffffffffffff1673ffffffffffffffffffffffffffffffffffffffff1681526020016001820160009054906101000a900473ffffffffffffffffffffffffffffffffffffffff1673ffffffffffffffffffffffffffffffffffffffff1673ffffffffffffffffffffffffffffffffffffffff16815260200160028201548152602001600382015481526020016004820154815250508152602001906001019061069d565b505050509050919050565b600080fd5b600073ffffffffffffffffffffffffffffffffffffffff82169050919050565b60006107d4826107a9565b9050919050565b6107e4816107c9565b81146107ef57600080fd5b50565b600081359050610801816107db565b92915050565b6000819050919050565b61081a81610807565b811461082557600080fd5b50565b60008135905061083781610811565b92915050565b600080600060608486031215610856576108556107a4565b5b6000610864868287016107f2565b935050602061087586828701610828565b925050604061088686828701610828565b9150509250925092565b600080600080608085870312156108aa576108a96107a4565b5b60006108b8878288016107f2565b94505060206108c9878288016107f2565b93505060406108da87828801610828565b92505060606108eb87828801610828565b91505092959194509250565b6000806040838503121561090e5761090d6107a4565b5b600061091c85828601610828565b925050602061092d85828601610828565b9150509250929050565b610940816107c9565b82525050565b61094f81610807565b82525050565b600060a08201905061096a6000830188610937565b6109776020830187610937565b6109846040830186610946565b6109916060830185610946565b61099e6080830184610946565b9695505050505050565b6000602082840312156109be576109bd6107a4565b5b60006109cc84828501610828565b91505092915050565b600081519050919050565b600082825260208201905092915050565b6000819050602082019050919050565b610a0a816107c9565b82525050565b610a1981610807565b82525050565b60008115159050919050565b610a3481610a1f565b82525050565b608082016000820151610a506000850182610a01565b506020820151610a636020850182610a10565b506040820151610a766040850182610a10565b506060820151610a896060850182610a2b565b50505050565b6000610a9b8383610a3a565b60808301905092915050565b6000602082019050919050565b6000610abf826109d5565b610ac981856109e0565b9350610ad4836109f1565b8060005b83811015610b05578151610aec8882610a8f565b9750610af783610aa7565b925050600181019050610ad8565b5085935050505092915050565b60006020820190508181036000830152610b2c8184610ab4565b905092915050565b610b3d81610a1f565b82525050565b6000608082019050610b586000830187610937565b610b656020830186610946565b610b726040830185610946565b610b7f6060830184610b34565b95945050505050565b600081519050919050565b600082825260208201905092915050565b6000819050602082019050919050565b60a082016000820151610bca6000850182610a01565b506020820151610bdd6020850182610a01565b506040820151610bf06040850182610a10565b506060820151610c036060850182610a10565b506080820151610c166080850182610a10565b50505050565b6000610c288383610bb4565b60a08301905092915050565b6000602082019050919050565b6000610c4c82610b88565b610c568185610b93565b9350610c6183610ba4565b8060005b83811015610c92578151610c798882610c1c565b9750610c8483610c34565b925050600181019050610c65565b5085935050505092915050565b60006020820190508181036000830152610cb98184610c41565b905092915050565b6000604082019050610cd66000830185610946565b610ce36020830184610946565b9392505050565b6000606082019050610cff6000830186610946565b610d0c6020830185610946565b610d196040830184610946565b94935050505056fea2646970667358221220a54670e2e8899f3ed265346c6e1089dc141989fcce681f91d7bdd897df1ffc9264736f6c63430008180033",
  "linkReferences": {},
  "deployedLinkReferences": {}
}