{
  "_format": "hh-sol-artifact-1",
  "contractName": "UserManagement",
  "sourceName": "contracts/UserManagement.sol",
  "abi": [
    {
      "inputs": [
        {
          "internalType": "address",
          "name": "_address",
          "type": "address"
        }
      ],
      "name": "checkIsUserLogged",
      "outputs": [
        {
          "internalType": "bool",
          "name": "",
          "type": "bool"
        }
      ],
      "stateMutability": "view",
      "type": "function"
    },
    {
      "inputs": [
        {
          "internalType": "address",
          "name": "_address",
          "type": "address"
        },
        {
          "internalType": "string",
          "name": "_password",
          "type": "string"
        }
      ],
      "name": "login",
      "outputs": [
        {
          "internalType": "bool",
          "name": "",
          "type": "bool"
        }
      ],
      "stateMutability": "nonpayable",
      "type": "function"
    },
    {
      "inputs": [
        {
          "internalType": "address",
          "name": "_address",
          "type": "address"
        }
      ],
      "name": "logout",
      "outputs": [],
      "stateMutability": "nonpayable",
      "type": "function"
    },
    {
      "inputs": [
        {
          "internalType": "address",
          "name": "_address",
          "type": "address"
        },
        {
          "internalType": "string",
          "name": "_name",
          "type": "string"
        },
        {
          "internalType": "string",
          "name": "_password",
          "type": "string"
        }
      ],
      "name": "register",
      "outputs": [
        {
          "internalType": "bool",
          "name": "",
          "type": "bool"
        }
      ],
      "stateMutability": "nonpayable",
      "type": "function"
    }
  ],
  "bytecode": "0x608060405234801561001057600080fd5b50610c62806100206000396000f3fe608060405234801561001057600080fd5b506004361061004c5760003560e01c8063297f7b39146100515780632f19d50b146100815780638d59cc02146100b1578063cc51f9b9146100e1575b600080fd5b61006b60048036038101906100669190610592565b6100fd565b60405161007891906105da565b60405180910390f35b61009b6004803603810190610096919061073b565b610155565b6040516100a891906105da565b60405180910390f35b6100cb60048036038101906100c69190610797565b6102a5565b6040516100d891906105da565b60405180910390f35b6100fb60048036038101906100f69190610592565b6104c3565b005b60008060008373ffffffffffffffffffffffffffffffffffffffff1673ffffffffffffffffffffffffffffffffffffffff16815260200190815260200160002060030160009054906101000a900460ff169050919050565b6000816040516020016101689190610893565b604051602081830303815290604052805190602001206000808573ffffffffffffffffffffffffffffffffffffffff1673ffffffffffffffffffffffffffffffffffffffff1681526020019081526020016000206002016040516020016101cf91906109a2565b604051602081830303815290604052805190602001200361029a5760016000808573ffffffffffffffffffffffffffffffffffffffff1673ffffffffffffffffffffffffffffffffffffffff16815260200190815260200160002060030160006101000a81548160ff0219169083151502179055506000808473ffffffffffffffffffffffffffffffffffffffff1673ffffffffffffffffffffffffffffffffffffffff16815260200190815260200160002060030160009054906101000a900460ff16905061029f565b600090505b92915050565b60003373ffffffffffffffffffffffffffffffffffffffff166000808673ffffffffffffffffffffffffffffffffffffffff1673ffffffffffffffffffffffffffffffffffffffff16815260200190815260200160002060000160009054906101000a900473ffffffffffffffffffffffffffffffffffffffff1673ffffffffffffffffffffffffffffffffffffffff160361034057600080fd5b836000808673ffffffffffffffffffffffffffffffffffffffff1673ffffffffffffffffffffffffffffffffffffffff16815260200190815260200160002060000160006101000a81548173ffffffffffffffffffffffffffffffffffffffff021916908373ffffffffffffffffffffffffffffffffffffffff160217905550826000808673ffffffffffffffffffffffffffffffffffffffff1673ffffffffffffffffffffffffffffffffffffffff168152602001908152602001600020600101908161040e9190610b5a565b50816000808673ffffffffffffffffffffffffffffffffffffffff1673ffffffffffffffffffffffffffffffffffffffff168152602001908152602001600020600201908161045d9190610b5a565b5060008060008673ffffffffffffffffffffffffffffffffffffffff1673ffffffffffffffffffffffffffffffffffffffff16815260200190815260200160002060030160006101000a81548160ff021916908315150217905550600190509392505050565b60008060008373ffffffffffffffffffffffffffffffffffffffff1673ffffffffffffffffffffffffffffffffffffffff16815260200190815260200160002060030160006101000a81548160ff02191690831515021790555050565b6000604051905090565b600080fd5b600080fd5b600073ffffffffffffffffffffffffffffffffffffffff82169050919050565b600061055f82610534565b9050919050565b61056f81610554565b811461057a57600080fd5b50565b60008135905061058c81610566565b92915050565b6000602082840312156105a8576105a761052a565b5b60006105b68482850161057d565b91505092915050565b60008115159050919050565b6105d4816105bf565b82525050565b60006020820190506105ef60008301846105cb565b92915050565b600080fd5b600080fd5b6000601f19601f8301169050919050565b7f4e487b7100000000000000000000000000000000000000000000000000000000600052604160045260246000fd5b610648826105ff565b810181811067ffffffffffffffff8211171561066757610666610610565b5b80604052505050565b600061067a610520565b9050610686828261063f565b919050565b600067ffffffffffffffff8211156106a6576106a5610610565b5b6106af826105ff565b9050602081019050919050565b82818337600083830152505050565b60006106de6106d98461068b565b610670565b9050828152602081018484840111156106fa576106f96105fa565b5b6107058482856106bc565b509392505050565b600082601f830112610722576107216105f5565b5b81356107328482602086016106cb565b91505092915050565b600080604083850312156107525761075161052a565b5b60006107608582860161057d565b925050602083013567ffffffffffffffff8111156107815761078061052f565b5b61078d8582860161070d565b9150509250929050565b6000806000606084860312156107b0576107af61052a565b5b60006107be8682870161057d565b935050602084013567ffffffffffffffff8111156107df576107de61052f565b5b6107eb8682870161070d565b925050604084013567ffffffffffffffff81111561080c5761080b61052f565b5b6108188682870161070d565b9150509250925092565b600081519050919050565b600081905092915050565b60005b8381101561085657808201518184015260208101905061083b565b60008484015250505050565b600061086d82610822565b610877818561082d565b9350610887818560208601610838565b80840191505092915050565b600061089f8284610862565b915081905092915050565b7f4e487b7100000000000000000000000000000000000000000000000000000000600052602260045260246000fd5b600060028204905060018216806108f157607f821691505b602082108103610904576109036108aa565b5b50919050565b60008190508160005260206000209050919050565b6000815461092c816108d9565b610936818661082d565b94506001821660008114610951576001811461096657610999565b60ff1983168652811515820286019350610999565b61096f8561090a565b60005b8381101561099157815481890152600182019150602081019050610972565b838801955050505b50505092915050565b60006109ae828461091f565b915081905092915050565b60006020601f8301049050919050565b600082821b905092915050565b600060088302610a067fffffffffffffffffffffffffffffffffffffffffffffffffffffffffffffffff826109c9565b610a1086836109c9565b95508019841693508086168417925050509392505050565b6000819050919050565b6000819050919050565b6000610a57610a52610a4d84610a28565b610a32565b610a28565b9050919050565b6000819050919050565b610a7183610a3c565b610a85610a7d82610a5e565b8484546109d6565b825550505050565b600090565b610a9a610a8d565b610aa5818484610a68565b505050565b5b81811015610ac957610abe600082610a92565b600181019050610aab565b5050565b601f821115610b0e57610adf8161090a565b610ae8846109b9565b81016020851015610af7578190505b610b0b610b03856109b9565b830182610aaa565b50505b505050565b600082821c905092915050565b6000610b3160001984600802610b13565b1980831691505092915050565b6000610b4a8383610b20565b9150826002028217905092915050565b610b6382610822565b67ffffffffffffffff811115610b7c57610b7b610610565b5b610b8682546108d9565b610b91828285610acd565b600060209050601f831160018114610bc45760008415610bb2578287015190505b610bbc8582610b3e565b865550610c24565b601f198416610bd28661090a565b60005b82811015610bfa57848901518255600182019150602085019450602081019050610bd5565b86831015610c175784890151610c13601f891682610b20565b8355505b6001600288020188555050505b50505050505056fea2646970667358221220e6e91a660e51b6378cd5cfb17dde3c8001f3a153a8bc5bc9091180d80d738a7064736f6c63430008180033",
  "linkReferences": {},
  "deployedLinkReferences": {}
}